:020000040800F2
:1000000020080020950100088D350008853500087E
:1000100089350008DD0500086D3800080000000083
:10002000000000000000000000000000BD350008D6
:10003000F10500080000000091350008BF350008F8
:10004000AF010008AF010008AF010008AF010008D0
:10005000AF010008AF010008AF010008AF010008C0
:10006000AF010008F3050008AF010008AF01000868
:10007000AF010008AF010008AF010008AF010008A0
:10008000AF010008AF010008AF010008AF01000890
:10009000AF010008E1050008AF010008FD050008F8
:1000A000AF010008AF010008AF010008AF01000870
:1000B000C9350008AF010008AF010008AF01000812
:1000C000AF010008AF010008AF010008AF01000850
:1000D000AF010008AF010008AF010008AF01000840
:1000E000AF010008AF010008AF01000800F002F8FE
:1000F00000F040F80AA090E8000C82448344AAF182
:100100000107DA4501D100F035F8AFF2090EBAE87F
:100110000F0013F0010F18BFFB1A43F0010318473B
:1001200098440000B8440000103A24BF78C878C151
:10013000FAD8520724BF30C830C144BF04680C60ED
:10014000704700000023002400250026103A28BF35
:1001500078C1FBD8520728BF30C148BF0B60704739
:100160001FB59DE8030000F029F900F0F9F81FBD64
:1001700010B510BD00F0B0F91146FFF7F1FF04F023
:10018000C9F800F0CEF903B4FFF7F2FF03BC00F0AA
:10019000FFF900000948804709480047FEE7FEE7ED
:1001A000FEE7FEE7FEE7FEE7FEE7FEE7FEE7FEE727
:1001B00004480549054A064B70470000C73500084A
:1001C000ED0000082002002020080020200400206C
:1001D0002004002070B5064600F0D4F8056806F14A
:1001E0000B0020F00704B4429CBF002070BD2B46DA
:1001F0006A68BAB11068A04210D304F108018842BD
:100200003CBF5068586007D35168101941601168AD
:10021000091B016058601460101D70BD13465268C0
:10022000002AE7D12146284600F0B4F80028DED1A4
:1002300070BD70B50446051F00F0A4F80068002CDE
:1002400014BF446870BD002C18BFAC423CBF2046B0
:100250006468F8D301680A18AA4218BF456003D140
:100260002A6805461144016028684119A1421CBF53
:100270006C6070BD6168696021680844286070BD69
:10028000032A40F2308010F0030C00F0158011F8C2
:10029000013BBCF1020F624498BF11F801CB00F89A
:1002A000013B38BF11F8013BA2F1040298BF00F8EE
:1002B00001CB38BF00F8013B11F0030300F0B4801C
:1002C000083AC0F0088051F8043B083A51F804CBD2
:1002D000A0E80810F5E7121D5CBF51F8043B40F898
:1002E000043BAFF30080D20724BF11F8013B11F8A3
:1002F00001CB48BF11F8012B24BF00F8013B00F8E7
:1003000001CB48BF00F8012B70474FF0000200B549
:10031000134694469646203922BFA0E80C50A0E828
:100320000C50B1F12001BFF4F7AF090728BFA0E8D6
:100330000C5048BF0CC05DF804EB890028BF40F8A2
:10034000042B08BF704748BF20F8022B11F0804FE4
:1003500018BF00F8012B70477047704770470000C6
:1003600070B5064C7C44064D7D4403E02068204473
:100370008047241DAC42F9D170BD000070420000DE
:100380007042000000487047C40100207047704769
:100390007047704738B504460A4600206946AFF3F7
:1003A0000080002808BF38BD02460099204600F0B2
:1003B00071F8012038BD012000F086B8F8B5AFF320
:1003C0000080054600200C46102000BF0646A819F4
:1003D000A0420DD9324669460020AFF300800700E5
:1003E00008BF00F071F80098A04218BF0546C41974
:1003F000FFF7C8FF05600746F01D20F0070046190B
:10040000284600F00AF8B44208BFF8BDA21B3146E6
:100410003868BDE8F84000F03DB800210160C0E94F
:10042000011070471020704710B5203AC0F00B80C3
:10043000B1E81850203AA0E81850B1E81850A0E8E8
:100440001850BFF4F5AF5FEA027C24BFB1E8185042
:10045000A0E8185044BF18C918C0BDE810405FEAB2
:10046000827C24BF51F8043B40F8043B08BF70472E
:10047000D20728BF31F8023B48BF11F8012B28BF33
:1004800020F8023B48BF00F8012B70470048704736
:10049000BC010020034640688C46002818BF8842F3
:1004A0003CBF03464068F8D318681844884207D018
:1004B0000CF1030020F00700001D411A521A0146FA
:1004C000081D0A60FFF7B5BE10B500F039F8BDE8A9
:1004D000104000F02FB870477546FFF7D7FFAE46C3
:1004E00005006946534620F00700854618B020B540
:1004F000FFF75EFEBDE820404FF000064FF000071A
:100500004FF000084FF0000B21F00701AC46ACE8BB
:10051000C009ACE8C009ACE8C009ACE8C0098D4628
:10052000704710B50446AFF300802046BDE8104088
:10053000FFF729BE002801D000F02AB8704700005C
:1005400010B5012805D0002103A000F027F80120F4
:1005500010BD09A1F8E7000053494752544D454DDD
:100560003A204F7574206F662068656170206D6554
:100570006D6F7279000000003A2048656170206D4F
:10058000656D6F727920636F727275707465640047
:1005900001491820ABBEFEE72600020070B50546F3
:1005A0000C460A2000E06D1C00F011F835B12878E7
:1005B0000028F8D102E0641C00F009F814B120789A
:1005C0000028F8D1BDE870400A20AFF3008008B5DC
:1005D00069468DF800000320ABBE08BD00BFFEE7F2
:1005E00010B5024800F074FB10BD00001C00002094
:1005F000704710B5082000F095FF10BD10B5202001
:1006000000F090FF10BD72B600BFFEE770B5044663
:100610000D4694F820600D48854200D804E040F271
:1006200064610BA003F074FE012E01D0022E06D1EE
:1006300020684069284321684861002070BD606AD5
:1006400040F4802060620120F8E700007F8F030003
:100650002E2E2F447269766572732F53544D3332A8
:10066000463178785F48414C5F4472697665722FF5
:100670005372632F73746D3332663178785F6861BB
:100680006C5F63616E2E63002DE9F04705460C46F2
:100690001746994695F820A02868D0F80880A068E9
:1006A00010B1A068042800D104E040F2CD4163A05D
:1006B00003F02EFEE06810B1E068022800D104E0EB
:1006C00040F2CE415DA003F023FE2069082800D847
:1006D00004E040F2CF4159A003F01AFEA06850B9DF
:1006E0002068B0F5006F00D20FE040F2D24153A075
:1006F00003F00EFE09E06068B0F1005F00D204E094
:1007000040F2D6414DA003F003FE207D10B1207DC4
:10071000012800D104E04FF49B6148A003F0F8FDEC
:10072000BAF1010F02D0BAF1020F79D108F080605E
:1007300030B908F0006018B908F08050002871D076
:10074000C8F30166022E06D9686A40F400006862A8
:100750000120BDE8F0870120B040C9F80000A06882
:1007600050B92188E06840EA4151286800F5C0701E
:1007700000EB061001600BE0D4E9011040EAC10073
:10078000E1680843296801F5C07101EB06110860B2
:100790002169286800F5C07000EB06104160207DDB
:1007A00001280DD1286800F5C07000EB06104068E4
:1007B00040F48071286800F5C07000EB06104160BD
:1007C000F8790006B97940EA0140797940EA0120D8
:1007D00039790843296801F5C07101EB0611C86039
:1007E000F8780006B97840EA0140797840EA0120BB
:1007F00039780843296801F5C07101EB061188605A
:10080000286800F5C07000EB0610006840F0010198
:10081000286800F5C07000EB06100160002098E722
:1008200006E0FFE7686A40F400106862012090E784
:10083000686A40F48020686201208AE72E2E2F44E7
:100840007269766572732F53544D3332463178781E
:100850005F48414C5F4472697665722F5372632F13
:1008600073746D3332663178785F68616C5F636191
:100870006E2E63002DE9F04107460C463D6897F85F
:100880002080B8F1010F02D0B8F1020F7DD12068AD
:10089000B0F5803F00D204E04FF4547169A003F03A
:1008A00037FD6068B0F5803F00D204E040F251317E
:1008B00064A003F02DFDA068B0F5803F00D204E0F5
:1008C00040F252315FA003F023FDE068B0F5803FB5
:1008D00000D204E040F253315AA003F019FDA069A0
:1008E00010B1A069012800D104E04FF4557155A062
:1008F00003F00EFDE06910B1E069012800D104E0C9
:1009000040F255314FA003F003FD206910B120697A
:10091000012800D104E040F256314AA003F0F8FC6F
:10092000206A10B1206A012800D104E040F257315A
:1009300044A003F0EDFC60690D2800D804E040F20B
:10094000653140A003F0E4FCD5F8000240F001005E
:10095000C5F80002207D00F01F01012000FA01F619
:10096000D5F81C02B043C5F81C02E069D8B9D5F827
:100970000C02B043C5F80C02A08880B2A18940EAFD
:10098000014105F51070626900E054E040F8321052
:10099000208880B2218940EA014105F51070626922
:1009A00000EBC2004160E069012819D1D5F80C02C2
:1009B0003043C5F80C02A08880B2218840EA01418A
:1009C00005F51070626940F83210A08980B2218963
:1009D00040EA014105F51070626900EBC200416018
:1009E000A06928B9D5F80402B043C5F8040204E0B0
:1009F000D5F804023043C5F80402206928B9D5F8B7
:100A00001402B043C5F8140204E0D5F814023043D0
:100A1000C5F81402206A012804D1D5F81C0230431D
:100A2000C5F81C02D5F8000220F00100C5F800024C
:100A30000020BDE8F081786A40F4802078620120CF
:100A4000F7E700002E2E2F447269766572732F53DC
:100A5000544D3332463178785F48414C5F44726977
:100A60007665722F5372632F73746D3332663178EB
:100A7000785F68616C5F63616E2E630070B50446D9
:100A80000D4694F820600D48854200D804E040F2FD
:100A900085610BA003F03CFC012E01D0022E06D193
:100AA00020684069A84321684861002070BD606AE1
:100AB00040F4802060620120F8E700007F8F03008F
:100AC0002E2E2F447269766572732F53544D333234
:100AD000463178785F48414C5F4472697665722F81
:100AE0005372632F73746D3332663178785F686147
:100AF0006C5F63616E2E6300704700002DE9F0416A
:100B000004460D4616461F4694F820800DB1012D6F
:100B100000D104E040F2D4515FA003F0F9FBB8F13A
:100B2000010F02D0B8F1020F7ED15DB92068C06814
:100B300000F0030088B9606A40F400106062012090
:100B4000BDE8F0812068006900F0030028B9606A00
:100B500040F4001060620120F2E7206800F5D870D0
:100B600000EB0510006800F00400B060B06840B908
:100B7000206800F5D87000EB05100068400D30606B
:100B800007E0206800F5D87000EB05100068C00889
:100B90007060206800F5D87000EB0510006800F068
:100BA0000200F060206800F5D87000EB0510406886
:100BB00000F00F003061206800F5D87000EB0510E0
:100BC000406800F47F40000AB061206800F5D870EA
:100BD00000EB05104068000C7061206800F5D870CB
:100BE00000EB051080683870206800F5D87000EBC5
:100BF0000510806800F47F40000A7870206800F5D6
:100C0000D87000EB0510806800F47F00000CB8700D
:100C1000206800F5D87000EB05108068000EF870B1
:100C2000206800F5D87000E02FE000EB0510C068E8
:100C30003871206800F5D87000EB0510C06800F42A
:100C40007F40000A7871206800F5D87000EB05102D
:100C5000C06800F47F00000CB871206800F5D870FF
:100C600000EB0510C068000EF87135B92068C06847
:100C700040F020002168C86005E02068006940F06D
:100C800020002168086100205AE7606A40F4802053
:100C90006062012054E700002E2E2F4472697665B1
:100CA00072732F53544D3332463178785F48414C3C
:100CB0005F4472697665722F5372632F73746D335C
:100CC00032663178785F68616C5F63616E2E6300B5
:100CD0002DE9F05F04460025206846692068D0F8B9
:100CE0000490206887682068D0F80CA02068D0F8AD
:100CF00010B02068D0F8188006F00100002855D008
:100D000007F00100C0B101202168886007F00200EF
:100D100018B1204600F0A1FB0EE007F0040010B16E
:100D200045F4006508E007F0080010B145F480556F
:100D300002E0204600F090FB07F48070C8B14FF449
:100D400080702168886007F4007018B1204600F0B8
:100D500086FB0EE007F4806010B145F4005508E012
:100D600007F4006010B145F4804502E0204600F031
:100D700075FB07F48030C8B14FF48030216888607B
:100D800007F4003018B1204600F06BFB0EE007F4CA
:100D9000802010B145F4004508E007F4002010B1B0
:100DA00045F4803502E0204600F05AFB06F00800CA
:100DB00038B10AF0100020B145F400751020216808
:100DC000C86006F0040040B10AF0080028B108200D
:100DD0002168C860204600F0F5FA06F0020038B13C
:100DE0002068C06800F0030010B1204600F0EBFA64
:100DF00006F0400038B10BF0100020B145F48065DA
:100E000010202168086106F0200040B10BF00800B6
:100E100028B1082021680861204600F0D5FA06F0C4
:100E2000100038B12068006900F0030010B12046BE
:100E300000F0CCFA06F4003040B109F0100028B1FF
:100E4000102021684860204600F0D6FA06F4803071
:100E500040B109F0080028B1082021684860204608
:100E600000F000FB06F4004088B309F0040078B3FA
:100E700006F4807020B108F0010008B145F00105CA
:100E800006F4007020B108F0020008B145F0020538
:100E900006F4806020B108F0040008B145F00405B4
:100EA00006F40060A0B108F0700088B108F070008E
:100EB000402817D006DC10280BD020280CD0302872
:100EC00019D10CE0502810D0602814D110E01DE09A
:100ED00019E045F008050FE045F010050CE045F07D
:100EE000200509E045F0400506E045F0800503E0F7
:100EF00045F4807500E000BF00BF2068806920F0E5
:100F00007000216888610420216848602DB1606A02
:100F1000284360622046FFF7EFFDBDE8F09F000028
:100F200070B504460CB9012070BDCE4920688842D6
:100F300000D104E040F21D11CBA003F0E9F9207EBE
:100F400010B1207E012800D104E04FF48F71C6A0BB
:100F500003F0DEF9607E10B1607E012800D104E06C
:100F600040F21F11C0A003F0D3F9A07E10B1A07E03
:100F7000012800D104E04FF49071BBA003F0C8F940
:100F8000E07E10B1E07E012800D104E040F22111A2
:100F9000B5A003F0BDF9207F10B1207F012800D15A
:100FA00004E04FF49171B0A003F0B2F9607F10B18A
:100FB000607F012800D104E040F22311AAA003F0D1
:100FC000A7F9A06858B1A068B0F1804F07D0A06819
:100FD000B0F1004F03D0A068B0F1404F00D104E061
:100FE0004FF49271A0A003F093F9E06858B1E06863
:100FF000B0F1807F07D0E068B0F1007F03D0E068F7
:10100000B0F1407F00D104E040F2251196A003F03A
:101010007FF92069D8B32069B0F5803F37D02069C7
:10102000B0F5003F33D02069B0F5403F2FD02069A4
:10103000B0F5802F2BD02069B0F5A02F27D02069E4
:10104000B0F5C02F23D02069B0F5E02F1FD0206964
:10105000B0F5002F1BD02069B0F5102F17D02069F4
:10106000B0F5202F13D02069B0F5302F0FD02069B4
:10107000B0F5402F0BD02069B0F5502F07D0206974
:10108000B0F5602F03D02069B0F5702F00D104E0D7
:101090004FF4937174A003F03BF96069D8B16069B3
:1010A000B0F5801F17D06069B0F5001F13D06069DC
:1010B000B0F5401F0FD06069B0F5800F0BD06069AC
:1010C000B0F5A00F07D06069B0F5C00F03D060691C
:1010D000B0F5E00F00D104E040F2271162A003F068
:1010E00017F9606820B16068B0F5806F00D804E03F
:1010F0004FF494715CA003F00BF994F8200010B940
:10110000204600F007F92068006840F001002168DF
:10111000086000F07FFC05460DE000F07BFC401B02
:101120000A2808D9606A40F400306062052084F81B
:1011300020000120F8E62068406800F00100002847
:10114000EBD02068006820F002002168086000F001
:1011500061FC05460DE000F05DFC401B0A2808D943
:10116000606A40F400306062052084F820000120AD
:10117000DAE62068406800F002000028EBD1207E0B
:10118000012806D12068006840F0800021680860CE
:1011900005E02068006820F0800021680860607E1B
:1011A000012806D12068006840F0400021680860EE
:1011B00005E02068006820F0400021680860A07EFB
:1011C000012806D12068006840F0200021680860EE
:1011D00005E02068006820F0200021680860E07EBB
:1011E000012806D12068006820F0100021680860FE
:1011F00005E02068006840F0100021680860207F4A
:10120000012806D12068006840F0080021680860C5
:1012100005E02068006820F0080021680860607F11
:10122000012806D12068006840F0040021680860A9
:1012300005E02068006820F0040021680860D4E917
:101240000201084321690843616908436168491E36
:1012500008432168C86100206062012084F82000F2
:10126000002061E6006400402E2E2F4472697665EE
:1012700072732F53544D3332463178785F48414C66
:101280005F4472697665722F5372632F73746D3386
:1012900032663178785F68616C5F63616E2E6300DF
:1012A0002DE9F04105460C46002795F82060072CF3
:1012B00000D804E040F2945108A003F029F8012E70
:1012C00001D0022E07D12868806800EA8460B0EB64
:1012D000846F00D001273846BDE8F0812E2E2F44C0
:1012E0007269766572732F53544D33324631787874
:1012F0005F48414C5F4472697665722F5372632F69
:1013000073746D3332663178785F68616C5F6361E6
:101310006E2E630010B586B0044600200290039044
:101320000490059023492068884241D100BF22489B
:10133000C06940F000702049C8610846C06900F0EB
:101340000070019000BF00BF00BF0846806940F0F8
:10135000080088610846806900F00800019000BF1D
:1013600000BF8815029000200390049002A9134842
:1013700000F0E6F84FF40070029002200390032082
:10138000059002A90D4800F0DBF800BF0C49486841
:1013900020F4C04040F0E06040F48040486000BF6E
:1013A00000221146152000F08DFD152000F054FD9F
:1013B00006B010BD0064004000100240000C014067
:1013C00000000140704770477047000010B50446A8
:1013D000064802F077FC4FF40051054800F0A8FAE7
:1013E00004480088401C0349088010BD24010020E7
:1013F0000010014008000020704770B5044694F8C2
:101400002000012822D1022084F8200020680068F2
:1014100020F001002168086000F0FCFA05460DE0AC
:1014200000F0F8FA401B0A2808D9606A40F400303E
:101430006062052084F82000012070BD20684068AB
:1014400000F001000028EBD16062F6E7606A40F42A
:10145000002060620120F0E77047704770477047D6
:10146000704770477047000010B504460CB9012062
:1014700010BD0A492068884200D103E0682108A015
:1014800002F046FF607920B900202071204600F06C
:1014900023F8012060710020EAE7000000300240DC
:1014A0002E2E2F447269766572732F53544D33324A
:1014B000463178785F48414C5F4472697665722F97
:1014C0005372632F73746D3332663178785F68615D
:1014D0006C5F6372632E630008B5094A016891422C
:1014E0000DD100BF0749496941F04001054A5161EA
:1014F0001146496901F04001009100BF00BF08BDDD
:10150000003002400010024010B50446202C04D1E7
:101510000121034802F080FB00E000BF00BF10BDC6
:101520002401002010B5044604480068204020B182
:10153000024804602046FFF7E7FF10BD1404014095
:101540002DE9FC5F05460C46002700200190DB4892
:1015500085420BD0DA48854208D0DA48854205D06A
:10156000D948854202D0D948854200D103E0BD2147
:10157000D7A002F0CDFE208880B220B120686FF3A2
:101580000F0000B903E0BE21D1A002F0C1FE6068E7
:1015900030B36068012823D06068112820D06068CB
:1015A00002281DD0606812281AD0D8496068884285
:1015B00016D0D7496068884212D0D6496068884200
:1015C0000ED0D549606888420AD0D4496068884204
:1015D00006D0D3496068884202D06068032800D1F1
:1015E00003E0BF21BAA002F093FE60E1012000FAFF
:1015F00007F8206800EA080646456FD1AF488542E3
:101600000BD0AF48854208D0AE48854205D0AE48E1
:10161000854202D0AD48854200D103E0CD21ACA087
:1016200002F076FEB94A6068811A90426AD00EDCF8
:10163000032875D006DC002863D0012819D00228C1
:101640006FD139E0112825D01228F9D147E0B1F542
:10165000881F5BD006DCB1F5803F56D0B1F5801F06
:1016600079D150E0B1F5001F4ED0B1F5041F72D111
:101670004DE0E068022805D0E068012802D0E0686B
:10168000032800D103E0D52191A002F041FEE068DB
:10169000019061E0E068022805D0E068012802D0EE
:1016A000E068032800D103E0DC2189A002F030FECD
:1016B000E068001D01904FE0E068022805D0E06876
:1016C000012802D0E068032800D103E0E32180A0D4
:1016D00002F01EFEE068083001903DE0DCE0E068CA
:1016E000022805D0E068012802D0E068032800D174
:1016F00003E0EA2176A002F00BFEE0680C300190D6
:101700002AE000BF00BF00BF00BF00BF00BFA0684D
:1017100028B1A068012802D0A068022802D105E003
:1017200016E018E0F7216AA002F0F2FDA06810B9F7
:10173000042001900BE0A068012804D1082001904A
:10174000C5F8108003E008200190C5F8148003E07C
:101750000020019000E000BF00BFFF2E01D8284606
:1017600000E0281D8246FF2E01D8B80002E0A7F154
:10177000080080008346DAF800000F2101FA0BF11F
:101780008843019901FA0BF10843CAF80000606828
:1017900000F08050B0F1805F7ED100BF6148806969
:1017A00040F001005F4988610846806900F001004F
:1017B000009000BF00BF4FEAB130B90850F8219047
:1017C000B807010F0F20884029EA00093B488542ED
:1017D00001D100200FE03A48854201D101200AE002
:1017E0003848854201D1022005E03748854201D1C1
:1017F000032000E00420B907090F884040EA0909E6
:101800004948B90840F82190606800F48030B0F58C
:10181000803F05D14548006830434449086004E0F2
:1018200042480068B04341490860606800F40030F5
:10183000B0F5003F07D13D48001D006830433B49EB
:10184000091D086006E03948001D0068B0433749AB
:10185000091D0860606800F48010B0F5801F07D192
:10186000324808300068304330490831086006E0EB
:101870002E4808300068B0432C4908310860606881
:1018800000F40010B0F5001F09D128480C300068A2
:10189000304326490C3100E008E0086006E02348A8
:1018A0000C300068B04321490C3108607F1C20686F
:1018B000F84000287FF49AAEBDE8FC9F0008014084
:1018C000000C0140001001400014014000180140CC
:1018D0002E2E2F447269766572732F53544D333216
:1018E000463178785F48414C5F4472697665722F63
:1018F0005372632F73746D3332663178785F686129
:101900006C5F6770696F2E630000000000001110AB
:101910000000211000003110000012100000221001
:101920000000321000100240080001400004014095
:1019300070B505460C46A0B218B1200C000400B9E1
:1019400004E04FF4F67106A002F0E2FCEE6824EA2F
:10195000060006EA040140EA0140286170BD00006B
:101960002E2E2F447269766572732F53544D333285
:10197000463178785F48414C5F4472697665722FD2
:101980005372632F73746D3332663178785F686198
:101990006C5F6770696F2E630000000070B50646CB
:1019A0000C461546A0B218B1200C000400B904E0A2
:1019B0004FF4EA7108A002F0ABFC0DB1012D00D18B
:1019C00004E040F2D51104A002F0A2FC0DB1346194
:1019D00001E02004306170BD2E2E2F4472697665BF
:1019E00072732F53544D3332463178785F48414CEF
:1019F0005F4472697665722F5372632F73746D330F
:101A000032663178785F68616C5F6770696F2E63EA
:101A10000000000001480068704700000C00002032
:101A200070B504460CB9012070BDA14920688842F8
:101A300003D0A0492068884200D104E040F2D111CF
:101A40009DA002F065FC606820B1A94960688842E9
:101A500000D804E04FF4E97197A002F059FCA068A7
:101A600018B1A068B0F5804F00D104E040F2D31166
:101A700091A002F04DFCE0686FF3090000B904E0AA
:101A80004FF4EA718CA002F043FC2069B0F5804F5E
:101A900003D02069B0F5404F00D104E040F2D511E9
:101AA00085A002F035FC606910B16069012800D1A1
:101AB00004E04FF4EB7180A002F02AFCA06920F052
:101AC000FE0000B904E040F2D7117BA002F020FC38
:101AD000E06910B1E069402800D104E04FF4EC71F6
:101AE00075A002F015FC206A10B1206A802800D190
:101AF00004E040F2D91170A002F00AFC94F83D0015
:101B000028B9002084F83C00204600F0FBF824208F
:101B100084F83D002068006820F00100216808601A
:101B20002068006840F40040216808602068006870
:101B300020F400402168086000F0DCFB05466D4998
:101B40006068884206D86C48854201D2012007E0CF
:101B5000002005E06948854201D2012000E0002014
:101B6000012800D160E76648B5FBF0F620684068C0
:101B700020F03F003043216848605E496068884239
:101B800001D8701C07E04FF4967070434FF47A71DF
:101B9000B0FBF1F0401C2168096A21F03F010843C5
:101BA0002168086253496068884214D8681E6168D9
:101BB0004900B0FBF1F0401CC0F30B00042801D237
:101BC00004203DE0681E61684900B0FBF1F0401C54
:101BD000C0F30B0034E0A06838B9681E616801EBFF
:101BE0004101B0FBF1F0401C0AE0681E616801EBA6
:101BF000C10202EB0111B0FBF1F0401C40F4804047
:101C0000C0F30B0008B901201AE0A06848B9681EAB
:101C1000616801EB4101B0FBF1F0401CC0F30B0027
:101C20000CE0681E616801EBC10202EB0111B0FB20
:101C3000F1F0401CC0F30B0040F4804040F4004041
:101C40002168C9694CF6FF72914308432168C86155
:101C5000D4E9070108432168096821F0C00108435D
:101C600021680860D4E9031008432168896848F2B4
:101C7000FF329143084321688860D4E90501084395
:101C80002168C96821F0FF0108432168C860206805
:101C9000006840F0010021680860002020642020D6
:101CA00084F83D000020206384F83E0000BFBBE6BE
:101CB00000540040005800402E2E2F447269766573
:101CC00072732F53544D3332463178785F48414C0C
:101CD0005F4472697665722F5372632F73746D332C
:101CE00032663178785F68616C5F6932632E6300B9
:101CF000801A0600A086010080841E0000093D00B5
:101D000040420F0010B586B00446002002900390B8
:101D10000490059015492068884225D100BF1448D9
:101D2000806940F00800124988610846806900F027
:101D30000800019000BF00BFC02002901220039055
:101D40000320059002A90B48FFF7FAFB00BF0848E3
:101D5000C06940F400100649C8610846C06900F433
:101D60000010019000BF00BF06B010BD005400403D
:101D700000100240000C0140034800680349097844
:101D800008440149086070470C000020140000203E
:101D900010B50848006840F01000064908600320AC
:101DA00000F0FAF8002000F007F800F02BF800200F
:101DB00010BD00000020024070B504460E480078B7
:101DC0004FF47A71B1FBF0F00C490968B1FBF0F502
:101DD000284600F00BFE08B1012070BD102C07D280
:101DE00000222146501E00F06DF80548046001E015
:101DF0000120F2E70020F0E7140000201800002086
:101E00001000002008B500BF1148806940F00100B3
:101E10000F4988610846806900F00100009000BF0A
:101E200000BF00BF0846C06940F08050C861084646
:101E3000C06900F08050009000BF00BF00BF05499E
:101E4000486820F0E06040F00070486000BF08BDC6
:101E5000001002400000014010B50446002C00DBD9
:101E600003E0BE2108A002F053FA2046002809DB57
:101E700000F01F02012191404209920002F1E0228C
:101E8000C2F8001100BF10BD2E2E2F447269766576
:101E900072732F53544D3332463178785F48414C3A
:101EA0005F4472697665722F5372632F73746D335A
:101EB00032663178785F68616C5F636F72746578E1
:101EC0002E6300002DE9F05F80460C461546002782
:101ED000102D00D203E0AA2120A002F019FA102C44
:101EE00000D203E0AB211DA002F012FA02F0ECF9DF
:101EF0000746394622462B4601F00700C0F1070A83
:101F0000BAF1040F02D94FF0040A01E0C0F1070A48
:101F1000D14600F1040ABAF1070F02D24FF0000ACD
:101F200001E0A0F1030AD4464FF0010A0AFA09FAC7
:101F3000AAF1010A0AEA020A0AFA0CFA4FF0010BA6
:101F40000BFA0CFBABF1010B0BEA030B4AEA0B0695
:101F50003146404602F0C0F9BDE8F09F2E2E2F44D6
:101F60007269766572732F53544D333246317878E7
:101F70005F48414C5F4472697665722F5372632FDC
:101F800073746D3332663178785F68616C5F636F4C
:101F9000727465782E63000010B50446072C07D0D4
:101FA000062C05D0052C03D0042C01D0032C00D125
:101FB00003E0922109A002F0ABF900BF04F0070191
:101FC000154A10684FF6FF021040144A024342EAD5
:101FD0000120114A106000BF10BD00002E2E2F44BA
:101FE0007269766572732F53544D33324631787867
:101FF0005F48414C5F4472697665722F5372632F5C
:1020000073746D3332663178785F68616C5F636FCB
:10201000727465782E6300000CED00E00000FA0594
:1020200070B504460D460CB9012070BD207800F053
:10203000010070B9207800F00200022809D0207851
:1020400000F00400042804D0207800F008000828DC
:1020500000D104E04FF44E7190A002F059F91DB187
:10206000012D01D0022D00D104E040F239318BA0C6
:1020700002F04EF99748006800F00700A8420ED21F
:102080009448006820F007002843924908600846F9
:10209000006800F00700A84201D00120C5E72078C1
:1020A00000F0020002283DD1207800F0040004284E
:1020B00005D18948406840F4E0608749486020784D
:1020C00000F00800082805D18348406840F46050BB
:1020D00081494860A068B8B1A068802814D0A06881
:1020E000902811D0A068A0280ED0A068B0280BD0EE
:1020F000A068C02808D0A068D02805D0A068E02833
:1021000002D0A068F02800D104E040F25F3163A063
:1021100002F0FEF87048406820F0F000A168084323
:102120006D494860207800F00100002845D06068C3
:1021300028B16068012802D06068022800D104E05C
:1021400040F2663155A002F0E3F86068012806D13C
:102150006148006800F4003090B9012065E76068CC
:10216000022806D15C48006800F0007040B90120E8
:102170005BE75948006800F0020008B9012054E705
:102180005548406820F003006168084352494860A0
:10219000FFF740FC064608E0FFF73CFC801B41F2DD
:1021A0008831884201D903203FE74B48406800F05E
:1021B0000C006168B0EB810FEED14648006800F07A
:1021C0000700A8420ED94348006820F007002843C2
:1021D000404908600846006800F00700A84201D0A6
:1021E000012022E7207800F0040004281FD1E068D5
:1021F00078B1E068B0F5806F0BD0E068B0F5A06F03
:1022000007D0E068B0F5C06F03D0E068B0F5E06FCC
:1022100000D104E04FF4697120A002F079F82E4853
:10222000406820F4E060E16808432B49486020786A
:1022300000F00800082820D1206978B12069B0F5A5
:10224000806F0BD02069B0F5A06F07D02069B0F582
:10225000C06F03D02069B0F5E06F00D104E040F218
:10226000AB310EA002F054F81B48406820F46050D7
:10227000216940EAC1001849486000F05BF816493E
:102280004968C1F30311154A515CC84014490860FC
:1022900014480068FFF790FD0020C6E62E2E2F445C
:1022A0007269766572732F53544D333246317878A4
:1022B0005F48414C5F4472697665722F5372632F99
:1022C00073746D3332663178785F68616C5F726306
:1022D000632E630000200240001002409E4500086B
:1022E000180000201000002001480068704700001E
:1022F0001800002000B5FFF7F7FF04494968C1F353
:102300000221034A515CC84000BD00000010024099
:10231000AE45000800B5FFF7E7FF04494968C1F37F
:10232000C221034A515CC84000BD000000100240B9
:10233000AE450008F0B585B00FF26C0C9CE8E010DB
:1023400001A8A0E8E0101CA52D680095002100223E
:10235000002300240020194D696801F00C05F5B137
:10236000042D02D0082D19D101E0154819E001AD66
:10237000C1F38346AC5D01F4803555B10F4D6D68F6
:10238000C5F340451DF805200D4D6543B5FBF2F33F
:1023900002E00C4D04FB05F3184602E000BF0848BC
:1023A00000BF00BF05B0F0BD020304050607080921
:1023B0000A0B0C0D0E0F101001020000001002405D
:1023C00000127A0000093D00F8B504460CB901205E
:1023D000F8BD206890B1207800F0010070B9207835
:1023E00000F00200022809D0207800F00800082838
:1023F00004D0207800F00400042800D104E040F26A
:102400006711FAA001F084FF207800F00100002895
:1024100070D0606838B16068B0F5803F03D0606804
:10242000B0F5A02F00D104E040F26D11EFA001F053
:102430006FFFFC48406800F00C0004280CD0F948FD
:10244000406800F00C00082811D1F648406800F4FC
:102450008030B0F5803F0AD1F248006800F40030C7
:10246000002860D0606800285DD10120B0E700BF7F
:102470006068B0F5803F06D1EA48006840F48030DB
:10248000E849086028E0606858B9E648006820F428
:102490008030E44908600846006820F48020086025
:1024A0001AE06068B0F5A02F0BD1DE48006840F458
:1024B0008020DC4908600846006840F480300860ED
:1024C0000AE0D848006820F48030D6490860084601
:1024D000006820F48020086000BF606890B1FFF7BA
:1024E00099FA054607E0FFF795FA401B642802D9E0
:1024F00003206DE717E0CB48006800F400300028A7
:10250000F1D010E0FFF786FA054606E0FFF782FA01
:10251000401B642801D903205AE7C248006800F430
:1025200000300028F2D1207800F0020002286BD1A0
:10253000206910B12069012800D104E040F2A11106
:10254000AAA001F0E5FE60691F2800D804E04FF45E
:10255000D171A6A001F0DCFEB248406800F00C008A
:1025600050B1B048406800F00C00082818D1AD48C0
:10257000406800F4803098B9AA48006800F0020072
:1025800020B12069012801D0012021E7A548006879
:1025900020F0F800616940EAC100A249086033E018
:1025A0002069E8B10120A0490860FFF733FA054629
:1025B00006E0FFF72FFA401B022801D9032007E7A6
:1025C0009848006800F002000028F2D095480068A2
:1025D00020F0F800616940EAC1009249086013E008
:1025E000002091490860FFF715FA054606E0FFF75D
:1025F00011FA401B022801D90320E9E68948006846
:1026000000F002000028F2D1207800F0080008282D
:1026100038D1A06910B1A069012800D104E04FF4BD
:10262000F17172A001F074FEA069B8B101207F4978
:102630000860FFF7EFF9054606E0FFF7EBF9401BEE
:10264000022801D90320C3E67648406A00F0020060
:102650000028F2D0012000F09DFF13E00020734914
:102660000860FFF7D7F9054606E0FFF7D3F9401BEE
:10267000022801D90320ABE66A48406A00F0020054
:102680000028F2D1207800F00400042878D1002737
:10269000E06828B1E068012802D0E068052800D190
:1026A00004E040F2112151A001F032FE5D48C06902
:1026B00000F0805070B900BF5A48C06940F08050A7
:1026C0005849C8610846C06900F08050009000BFBA
:1026D00000BF01275648006800F48070B0B9544824
:1026E000006840F4807052490860FFF793F905468E
:1026F00006E0FFF78FF9401B642801D9032067E645
:102700004B48006800F480700028F2D000BFE068F9
:10271000012806D14348006A40F00100414908629F
:1027200027E0E06858B93F48006A20F001003D49C1
:1027300008620846006A20F00400086219E0E068B8
:1027400005280BD13748006A40F00400354908627B
:102750000846006A40F0010008620AE03148006A59
:1027600020F001002F4908620846006A20F00400AA
:10277000086200BFE068A0B1FFF74CF9054609E028
:102780002BE0FFF747F9401B41F28831884201D91D
:1027900003201DE62348006A00F002000028F0D064
:1027A00012E0FFF737F9054608E0FFF733F9401B61
:1027B00041F28831884201D9032009E61948006AAC
:1027C00000F002000028F0D1012F05D11548C069A2
:1027D00020F080501349C86100BFE06928B1E0696A
:1027E000012802D0E069022824D129E02E2E2F44AE
:1027F0007269766572732F53544D3332463178784F
:102800005F48414C5F4472697665722F5372632F43
:1028100073746D3332663178785F68616C5F7263B0
:10282000632E6300001002400000424280044242D6
:102830000070004040F2AF21AFF2500001F068FD9F
:10284000E069002875D06748406800F00C0008284F
:1028500070D0E06902286ED1206A18B1206AB0F504
:10286000803F00D105E04FF42E71AFF2800001F0FF
:102870004FFD606AB8B3606AB0F5802F33D0606AEC
:10288000B0F5002F2FD0606AB0F5402F2BD0606AD2
:10289000B0F5801F27D0606AB0F5A01F23D0606A12
:1028A000B0F5C01F1FD0606AB0F5E01F1BD0606A92
:1028B000B0F5001F17D0606AB0F5101F13D0606A22
:1028C000B0F5201F0FD0606AB0F5301F0BD0606AE2
:1028D000B0F5401F07D0606AB0F5501F03D0606AA2
:1028E000B0F5601F00D105E040F2B921AFF204104D
:1028F00001F00EFD00203C490866FFF78BF8054605
:1029000006E0FFF787F8401B022801D903205FE5A6
:102910003448006800F000700028F2D1206AB0F559
:10292000803F17D1A06818B1A068B0F5003F03D16F
:1029300008E055E042E02CE040F2CF21AFF2541025
:1029400001F0E6FC2748406820F40030A168084305
:1029500024494860D4E9080108432249496821F420
:10296000741108431F49486001201F490866FFF79A
:1029700051F8054606E0FFF74DF8401B022801D943
:10298000032025E51748006800F000700028F2D009
:1029900026E0002014490866FFF73CF8054606E0EB
:1029A000FFF738F8401B022801D9032010E50D4835
:1029B000006800F000700028F2D111E0E069012801
:1029C00000D105E50748466806F48031206A814257
:1029D00004D106F47011606A814201D00120F7E44D
:1029E0000020F5E4001002400000424270B50446A9
:1029F0002546681EB0F1807F01D301200FE0681EDC
:102A00004FF0E02148610F214FF0FF3001F064FCEE
:102A100000204FF0E021886107200861002070BD90
:102A2000704770472DE9F04104460D463B49206848
:102A300088420BD02068B0F1804F07D03849206819
:102A4000884203D037492068884200D104E040F230
:102A5000867135A001F05CFC2868A0B128681028B8
:102A600011D0286820280ED0286830280BD028687C
:102A7000402808D02868502805D02868602802D04F
:102A80002868702800D104E040F2877126A001F088
:102A90003FFC6868802801D0686800B904E04FF402
:102AA000F16121A001F034FC00BF94F83C00012842
:102AB00002D10220BDE8F081012084F83C0000BF73
:102AC000022084F83D00206847682068866827F067
:102AD00070072868074320684760104920688842CB
:102AE0000BD02068B0F1804F07D00D492068884294
:102AF00003D00C492068884205D126F0800668681A
:102B0000064320688660012084F83D0000BF002055
:102B100084F83C0000BF00BFCCE70000002C01405F
:102B200000040040000800402E2E2F447269766594
:102B300072732F53544D3332463178785F48414C8D
:102B40005F4472697665722F5372632F73746D33AD
:102B500032663178785F68616C5F74696D5F657843
:102B60002E63000010B504460CB9012010BD394990
:102B7000206888420BD02068B0F1804F07D03649DA
:102B80002068884203D035492068884200D104E09B
:102B900040F2131132A001F0BBFBA06858B1A0684D
:102BA000102808D0A068202805D0A068402802D0AE
:102BB000A068602800D104E04FF48A7128A001F0D9
:102BC000A7FB206938B12069B0F5807F03D0206968
:102BD000B0F5007F00D104E040F2151120A001F013
:102BE00097FBA06910B1A069802800D104E04FF4E0
:102BF0008B711BA001F08CFB94F83D0028B90020DC
:102C000084F83C00204600F047F8022084F83D009C
:102C1000211D206800F0E0FC012084F8460000BF80
:102C200084F83E0001213F200155402001554120FC
:102C3000015500BF00BF012084F842004320015528
:102C4000442001554520015500BF012084F83D0076
:102C500000208BE7002C01400004004000080040E9
:102C60002E2E2F447269766572732F53544D333272
:102C7000463178785F48414C5F4472697665722FBF
:102C80005372632F73746D3332663178785F686185
:102C90006C5F74696D2E630038B504462068B0F12E
:102CA000804F15D100BF0B48C06940F001000949B1
:102CB000C8610846C06900F00100009000BF00BF75
:102CC000002211461C20FFF7FDF81C20FFF7C4F876
:102CD00038BD00000010024070B504462449206849
:102CE00088420BD02068B0F1804F07D0214920687E
:102CF000884203D020492068884200D104E040F295
:102D0000CF111EA001F004FB94F83D00012801D072
:102D1000012070BD022084F83D002068C06840F0AA
:102D200001002168C8601249206888420BD02068E1
:102D3000B0F1804F07D00F492068884203D00E4978
:102D4000206888420CD12068806800F00705062DB5
:102D50000CD02068006840F001002168086005E0A0
:102D60002068006840F00100216808600020D0E77A
:102D7000002C014000040040000800402E2E2F448B
:102D80007269766572732F53544D333246317878B9
:102D90005F48414C5F4472697665722F5372632FAE
:102DA00073746D3332663178785F68616C5F746913
:102DB0006D2E63002DE9F04105460C4600BF95F8E5
:102DC0003C00012802D10220BDE8F081012085F8F5
:102DD0003C0000BF022085F83D002068B0F5805F10
:102DE0001AD02068B0F5005F16D02068A0B1206826
:102DF000102811D0206820280ED0206830280BD051
:102E00002068402808D02068502805D02068602815
:102E100002D02068702800D104E041F23241E6A0DF
:102E200001F076FA2868866826F0770626F47F4651
:102E3000286886602068502871D00CDC20286FD06C
:102E400004DC00286DD010286CD18CE130286AD0C9
:102E50004028F9D149E1602878D070281DD0B0F51C
:102E6000805F03D0B0F5005FEED170E0E0492868E4
:102E700088420BD02868B0F1804F07D0DD49286820
:102E8000884203D0DC492868884200D104E041F23E
:102E90003E41C9A001F03CFA83E1D5492868884247
:102EA0000BD02868B0F1804F07D0D24928688842FB
:102EB00003D0D1492868884200D104E041F245415D
:102EC000BDA001F025FAA06858B1A068B0F5805FF8
:102ED00007D0A068B0F5005F03D0A068B0F5405FF0
:102EE00000D104E041F24841B3A001F011FA60685A
:102EF000B0F5004F09D0606838B1606828B16068EB
:102F0000022802D060680A2800D104E041F2494159
:102F1000A9A001F0FDF9E0680F2805D809E06AE0F2
:102F200022E11FE13CE120E141F24A41A2A001F08F
:102F3000EFF9D4E902136268286800F087FB28687B
:102F4000866846F07706286886602AE190E0A849FE
:102F5000286888420BD02868B0F1804F07D0A54977
:102F60002868884203D0A4492868884200D104E038
:102F700041F25D4190A001F0CBF9A06858B1A06882
:102F8000B0F5805F07D0A068B0F5005F03D0A068FF
:102F9000B0F5405F00D104E04FF4A35186A001F0EA
:102FA000B7F96068B0F5004F09D0606838B1606863
:102FB00028B16068022802D060680A2800D104E0C5
:102FC00041F261417CA001F0A3F9E0680F2800D82C
:102FD00004E041F2624178A001F09AF9D4E90213C9
:102FE0006268286800F032FB2868806840F48040FE
:102FF00029688860D5E07E49286888420BD0286817
:10300000B0F1804F07D07B492868884203D07A49C5
:103010002868884200D104E041F2714166A001F0C5
:1030200077F96068B0F5004F09D0606838B1606822
:1030300028B16068022802D060680A2800D104E044
:1030400041F274415CA001F063F9E0680F2800D8F8
:1030500004E041F2754158A001F05AF9E268616854
:10306000286800F007FB5021286800F0FAFA98E081
:103070005F49286888420BD02868B0F1804F07D09C
:103080005C492868884203D05B492868884200D19F
:1030900004E041F2814148A001F03AF96068B0F5DE
:1030A000004F09D0606838B1606828B160680228B4
:1030B00002D060680A2800D104E041F284413EA0B9
:1030C00001F026F9E0680F2800D804E041F28541BC
:1030D00039A001F01DF9E2686168286800F0DDFAA6
:1030E0006021286800F0BDFA5BE041492868884209
:1030F0000BD02868B0F1804F07D03E49286888423D
:1031000003D03D492868884200D104E041F2914152
:1031100029A001F0FDF86068B0F5004F09D06068A3
:1031200038B1606828B16068022802D060680A2857
:1031300000D104E041F294411FA001F0E9F8E068F9
:103140000F2800D804E041F295411BA001F0E0F8FF
:10315000E2686168286800F08DFA4021286800F074
:1031600080FA1EE000BF00BF00BF214928688842E6
:103170000BD02868B0F1804F07D01E4928688842DC
:1031800003D01D492868884200D104E041F2A441DF
:1031900009A001F0BDF82168286800F062FA00E09B
:1031A00000BF00BF012085F83D0000BF002085F86A
:1031B0003C0000BF00BF07E62E2E2F4472697665E3
:1031C00072732F53544D3332463178785F48414CF7
:1031D0005F4472697665722F5372632F73746D3317
:1031E00032663178785F68616C5F74696D2E630058
:1031F000002C01400004004000080040704710B55A
:10320000044620680069C0F34000D8B12068C06857
:10321000C0F34000B0B16FF00200216808610120E6
:1032200020772068806900F0030018B12046FFF77E
:10323000E5FF05E0204600F0ADF8204600F0ABF8D1
:103240000020207720680069C0F38000D8B1206892
:10325000C068C0F38000B0B16FF00400216808615D
:10326000022020772068806900F4407018B1204661
:10327000FFF7C4FF05E0204600F08CF8204600F080
:103280008AF80020207720680069C0F3C000D8B118
:103290002068C068C0F3C000B0B16FF008002168BA
:1032A0000861042020772068C06900F0030018B18D
:1032B0002046FFF7A3FF05E0204600F06BF820460C
:1032C00000F069F80020207720680069C0F3001042
:1032D000D8B12068C068C0F30010B0B16FF0100022
:1032E00021680861082020772068C06900F44070D8
:1032F00018B12046FFF782FF05E0204600F04AF8AB
:10330000204600F048F8002020772068006900F08F
:10331000010058B12068C06800F0010030B16FF0C2
:10332000010021680861204600F036F82068006935
:10333000C0F3C01058B12068C068C0F3C01030B1ED
:103340006FF08000216808612046FFF769FB206864
:103350000069C0F3801058B12068C068C0F38010C5
:1033600030B16FF0400021680861204600F022F87B
:1033700020680069C0F3401058B12068C068C0F3ED
:10338000401030B16FF02000216808612046FFF73F
:1033900048FB10BD7047704710B50446034884428F
:1033A00002D1034800F0EFFB10BD000098000020A0
:1033B000240100207047000010B504460CB901201C
:1033C00010BDA069002826D03A492068884207D05D
:1033D00039492068884203D038492068884200D1A2
:1033E00004E04FF4B67136A000F092FFA06958B126
:1033F000A069B0F5807F07D0A069B0F5007F03D049
:10340000A069B0F5407F00D117E040F26D112CA00B
:1034100000F07EFF11E027492068884207D0264946
:103420002068884203D025492068884200D104E002
:1034300040F2711122A000F06BFFA06818B1A068E3
:10344000B0F5805F00D104E040F273111CA000F0E1
:103450005FFF94F83D0028B9002084F83C00204626
:1034600000F04CF8242084F83D002068C06820F467
:1034700000502168C860204600F024F920680069E7
:1034800020F49040216808612068406920F02A00FB
:10349000216848612068C06840F400502168C86015
:1034A00000202064202084F83D0084F83E000020A5
:1034B00086E700000038014000440040004800401A
:1034C0002E2E2F447269766572732F53544D33320A
:1034D000463178785F48414C5F4472697665722F57
:1034E0005372632F73746D3332663178785F68611D
:1034F0006C5F756172742E630000000010B586B0B9
:103500000446002002900390049005901A49206818
:1035100088422ED100BF1948806940F48040174985
:1035200088610846806900F48040019000BF00BFB8
:1035300000BF0846806940F0040088610846806941
:1035400000F00400019000BF00BF48150290022067
:1035500003900320059002A90948FDF7F1FF4FF4FD
:103560008060029000200390049002A90448FDF7B7
:10357000E7FF06B010BD0000003801400010024017
:103580000008014000BFFEE700BFFEE700BFFEE706
:103590007047000008B508490968C9084FF47A72F5
:1035A000B1FBF2F14143009100BF00BF00994A1EF8
:1035B00000920029F9D108BD18000020704710B50D
:1035C000FEF7DAFB10BD704710B50248FFF717FE93
:1035D00010BD00009800002010B50268184B9842FA
:1035E00008D0B0F1804F05D0164B984202D0164B50
:1035F000984203D122F070024B681A43104B984254
:1036000008D0B0F1804F05D00E4B984202D00E4B3F
:10361000984203D122F44072CB681A4322F080030F
:103620004C6943EA040202608B68C3620B688362E0
:10363000034B984201D10B6903630123436110BD21
:10364000002C0140000400400008004030B50C464A
:10365000816821F47F4142EA0325254329438160A3
:1036600030BD0A46816821F0700142F0070319431A
:103670008160704730B50B461446026A056A25F032
:1036800001050562816921F0F00141EA041122F08F
:103690000A021A438161026230BD30B50B461446FE
:1036A000056A25F0100505628169026A21F47041FE
:1036B00041EA043122F0A00242EA0312816102626F
:1036C00030BD000070B5044657496068884200D894
:1036D00004E040F6536155A000F01AFEE06818B10E
:1036E000E068B0F5005F00D104E040F654614FA0FF
:1036F00000F00EFE206938B12069B0F5806F03D06C
:103700002069B0F5C06F00D104E040F6556147A0D4
:1037100000F0FEFD4FF6F3716069084010B9606972
:1037200000B104E040F6566140A000F0F1FD2068D1
:10373000006920F44050E16808432168086121696C
:10374000A0680843616940EA01062068C06841F248
:103750000C61884330432168C8602068406920F4C8
:103760004070A1690843216848613F492068884248
:1037700003D1FEF7CFFD054602E0FEF7BBFD05468F
:1037800005EBC50000EB051061688900B0FBF1F0A6
:1037900005EBC50101EB051162689200B1FBF2F186
:1037A0006422B1FBF2F101EBC10202EB0111A0EBCB
:1037B0008100322101EB00106421B0FBF1F000F038
:1037C000F00005EBC50101EB051162689200B1FB49
:1037D000F2F16422B1FBF2F100EB011105EBC5003F
:1037E00000EB051062689200B0FBF2F005EBC50239
:1037F00002EB051263689B00B2FBF3F26423B2FB99
:10380000F3F202EBC20303EB0212A0EB82003222BE
:1038100002EB00106422B0FBF2F000F00F0008444D
:103820002168886070BD000020AA44002E2E2F441D
:103830007269766572732F53544D333246317878FE
:103840005F48414C5F4472697665722F5372632FF3
:1038500073746D3332663178785F68616C5F75615F
:1038600072742E63000000000038014000BFFEE7C4
:1038700000B58BB01B481C4908601220486000212D
:1038800019488160C1604FF48031016100214161BC
:10389000017641768176C17601774177FDF740FB6D
:1038A00008B1FCF7B0FE012009900A200690012023
:1038B000059048F2E00001900020029048F2E000FC
:1038C00003900020049007900120089000200A90A7
:1038D00001A90548FCF7CEFF08B1FCF794FE0BB038
:1038E00000BD0000006400401C00002010B5054829
:1038F000054908600846FDF7B7FD08B1FCF783FEEF
:1039000010BD0000003002400000002000B585B06E
:103910000020019002900390049000BF3D48806910
:1039200040F010003B4988610846806900F01000B3
:10393000009000BF00BF0846806940F02000886109
:103940000846806900F02000009000BF00BF0846D4
:10395000806940F0040088610846806900F0040036
:10396000009000BF00BF0846806940F008008861F1
:103970000846806900F00800009000BF00224FF464
:1039800000512548FEF70AF80022FC212348FEF7E3
:1039900005F84FF4005001900120029000200390A0
:1039A0000220049001A91C48FDF7CAFDFC200190EB
:1039B00001200290002003900220049001A91748E2
:1039C000FDF7BEFD4FF21000019015480290002057
:1039D000039001A91348FDF7B3FD28200190124878
:1039E00002900020039001A90E48FDF7A9FD0022D6
:1039F00011460920FEF766FA0920FEF72DFA00228B
:103A000011461720FEF75EFA1720FEF725FA05B0DB
:103A100000BD0000001002400010014000080140FD
:103A200000001110000C01400000311010B50B48CF
:103A30000B4908600B484860002109488160C1605B
:103A40004FF480410161002141618161C1610162E6
:103A5000FDF7E6FF08B1FCF7D6FD10BD00540040AD
:103A600044000020A086010000B587B0002003902C
:103A7000049005900690019002904FF08040144908
:103A8000086048F69F404860002111488160C721C6
:103A9000C160002101618161FFF764F808B1FCF7A2
:103AA000B2FD4FF48050039003A90948FFF782F953
:103AB00008B1FCF7A8FD00200190029001A904487C
:103AC000FEF7B0FF08B1FCF79EFD07B000BD000097
:103AD0009800002000B58FB0282105A8FCF715FC40
:103AE00014216846FCF711FC0120059000040690A3
:103AF000002007900120099002200C90C1030D9135
:103B00004FF4E0110E9105A8FEF75EFC08B1FCF73A
:103B10007AFD0F20009002200190002002904FF4C7
:103B2000806003900020049002216846FEF778FA36
:103B300008B1FCF768FD0FB000BD000010B50B48E0
:103B40000B4908604FF4E13048600021084881606B
:103B5000C16001610C21416100218161C161FFF7F8
:103B60002BFC08B1FCF74FFD10BD000000380140F0
:103B7000E000002010B50446204600F00EF8204674
:103B800000F053F810BD90F89510002904DD90F86E
:103B90009510491E80F89510704710B5044694F8AA
:103BA0009600C0B394F8960001282ED194F89400A2
:103BB00030B101280AD002280ED0032818D111E014
:103BC00000221146204600F01AF912E001221146A7
:103BD000204600F014F90CE000221146204600F0C7
:103BE0001BF906E001221146204600F015F900E01D
:103BF00000BF00BF94F89400401CC0B284F8940049
:103C0000042802D1002084F89400002084F8960053
:103C1000052084F8950010BD90F8952022B980F811
:103C20009610032280F89520704770B50446204610
:103C300000F072F90021204600F0EDFA70B1204644
:103C400000F046F805462946204600F0FCF820B969
:103C50002A460021204600F02EF900BF2BE0204626
:103C600000F048F8054615B1012D1CD10DE094F87F
:103C70008400401C84F88400882108594FF07E514C
:103C800000F06AFB882108510EE04FF07E51D4F815
:103C90008C0000F061FBC4F88C0090200059401C9F
:103CA0009021085100E000BF00BF2A4600212046B5
:103CB00000F00FF900BF0021204600F0B6FA0028FE
:103CC000CDD170BD10B50446204600F07CF910BD82
:103CD00070B50546002409E022460021284600F080
:103CE0009DF908B1204670BD601CC4B2022CF3DB04
:103CF0000220F8E770B50546002409E022460021BD
:103D0000284600F099F908B1204670BD601CC4B285
:103D1000022CF3DB0220F8E770B504460D46294675
:103D2000204600F0A2FA022084F884004FF07F5170
:103D3000882001510020C4F88C00002190200151FE
:103D40000026082304F18402204600F0D0F806463D
:103D5000082304F18C020121204600F0C8F8064631
:103D60000EB100BFFEE770BD10B50446204600F05E
:103D700088FA04460020943460702070A070943C4F
:103D8000204610BD10B5044604F1480304F1380282
:103D9000211D2068FCF778FC08B1012010BD00202F
:103DA000FCE710B50446A16C2068FDF779FA08B964
:103DB000002010BD0120FCE72DE9F04104460D462E
:103DC00004F17C0030F81560083850F82570304652
:103DD000FCF700FAA066A06E10B90120BDE8F081E2
:103DE0005C3432463946E068FCF74AFAE0686061C4
:103DF0006571A670002004F85C0900BFEEE710B5FD
:103E000000F14C0353F8214001239340234300F178
:103E10004C0444F8213010BD10B500F1540353F8A0
:103E2000214001239340234300F1540444F82130FE
:103E300010BD03460A46002A01DB022A01DB0020EE
:103E400070470120FCE72DE9F04104460D4620466D
:103E500000F0F5F920B12946204600F0D0F810B165
:103E60000220BDE8F08104F1740050F8250008B983
:103E70000420F6E704F17C0030F81560083850F8AB
:103E800025703046FCF7A6F96066606E08B901201F
:103E9000E7E732463946606EFCF7F2F9606EE0669D
:103EA00084F85F60002084F85D0084F8605084F836
:103EB000800000BFD5E710B500F14C0353F8214056
:103EC0000123934024EA030300F14C0444F8213019
:103ED00010BD10B500F1540353F821400123934065
:103EE00024EA030300F1540444F8213010BDF0B576
:103EF00004460D4617461E4629462046FFF799FF01
:103F000008B90520F0BD04F1740040F825700830B0
:103F100020F815600020F5E770B505460024012162
:103F2000284600F078F990B12846FFF73AFF08B12B
:103F3000022070BD0221284600F0FCF82846FFF759
:103F400021FF04461CB90121284600F0BCF80121DC
:103F5000284600F06AF990B12846FFF722FF08B121
:103F60000220E6E70321284600F0E4F82846FFF7A0
:103F700009FF04461CB90121284600F0AAF828468A
:103F800000F05DF9E8B92846FFF70BFF08B1022001
:103F9000CFE795F8800060B90121284600F0CAF803
:103FA0002846FFF7EFFE04465CB9012085F8800043
:103FB00007E00021284600F0BDF82846FFF7E2FEA2
:103FC00004462046B5E710B5044610212068FCF7EA
:103FD00055FD04F1400304F11C0201212068FCF7A7
:103FE0008DFD204600F07BF810212068FCF70EFBC9
:103FF00010BD80F83810704739221154704710B541
:1040000003460C4693F86100A04205D1184600F023
:1040100021F908B9012010BD0020FCE710B50346C6
:1040200003F14C0050F8210001249440204008B1D5
:10403000012010BD0020FCE710B5034603F1540039
:1040400050F8210001249440204008B1012010BD07
:104050000020FCE770B50446012518E004F140009B
:10406000405D216F087094F85C00401C84F85C008F
:10407000206F401C2067204600F0ECF830B120464D
:1040800000F0BAF8A06EFCF7D4F802E06D1C082D21
:10409000E4DB70BD10B544231C5C43231B5C44EA85
:1040A000032442231B5C44EA034441231B5C44EA8F
:1040B0000362022903D1C36C1343C36402E0436D5E
:1040C0001343436510BD002300F14C0242F8213038
:1040D0007047002300F1540242F82130704770B558
:1040E0000446204600F080F830B101280CD00228A8
:1040F00013D003281BD115E0204600F0ABF810B90F
:104100002046FFF7A7FF13E0204600F071F80546B0
:1041100029462046FFF750FE0AE002212046FFF71D
:10412000B9FF05E003212046FFF7B4FF00E000BF20
:1041300000BF70BD70B504460D46F5B9002120469C
:10414000FFF757FF012615E0E06E017804F1380013
:10415000815594F85D00401C84F85D00E06E401CC1
:10416000E066204600F06BF818B1606EFCF761F86D
:1041700039E0761C082EE7DB35E0012D09D101215D
:104180002046FFF736FF94F860102046FFF734FF13
:1041900029E0022D12D104F1500202212046FFF73E
:1041A00028FFD1783920015591783A20015551786E
:1041B0003B20015511783C20015514E0032D12D10C
:1041C00004F1580203212046FFF713FFD17839206C
:1041D000015591783A20015551783B2001551178CD
:1041E0003C20015500BF70BD014691F8400070476A
:1041F00001464120405C704770B5044694F8611058
:1042000004F1740050F8215094F85E202846A16E05
:10421000FCF736F870BD024602F14C0050F8210060
:1042200008B1012070470020FCE7024602F154006B
:1042300050F8210008B1012070470020FCE701463A
:1042400091F85D0091F85F20904201D00020704706
:104250000120FCE7014691F85C0091F85E20904255
:1042600001D0002070470120FCE770B504460D46E0
:1042700025602068FDF7C1F810212068FCF7C6F919
:1042800070BD002100F85C1F81704170C170022177
:1042900001714171002180F824105C3808224261CC
:1042A0000022C260026140F20311416000210160FE
:1042B00000BF05E0002300F1740242F82130491CE0
:1042C0000229F7DB7047000002480068C0F30220B3
:1042D000704700000CED00E010B5002804DB0A0771
:1042E000130E054A135406E00A07140E034A00F0A1
:1042F0000F031B1FD45410BD00E400E018ED00E0D4
:1043000010B50248FFF730FD10BD00002401002069
:1043100070470000FDF73CFDFFF7DCFBFFF7F6FA06
:10432000FFF7E4FAFFF70AFCFFF7A2FAFFF77EFBBC
:10433000FFF79AFB0548FEF7CFFC05490548FFF754
:10434000EBFC02E00348FFF715FCFBE798000020B8
:104350001C0000202401002090EA010F48BF81F0DA
:10436000004100F1AE80421A3CBF801A89184FEA22
:10437000D0524FF07F4C1CEA410FA2EBD15318BF33
:104380009CEA026F00F03B804FF0004C4CEA0020AA
:104390004CEA012121FA03FC10EB0C0C1ED202F1B5
:1043A000FF325FEA1C2040EBC25038BF70471CF060
:1043B0007F0F4FEA400C18BFBCF17F4F38BF7047EA
:1043C000C3F12003994008BF20F00100BCF17F4FEA
:1043D00038BF7047A0F1C04000F066B84FEA3C001B
:1043E000000A40EBC25028BF1CF0FF0F4FEA400C00
:1043F000E6D018BFBCF17F4F38BF7047EAE79CEAB0
:10440000026F05D010EA5C0F08BF00F00040704753
:1044100010B500F003F800BF64FBBE3E0EF1020EC3
:104420002EF0030E5EF8044B244204D44FEA4102FE
:10443000B2F17F4F11D84FEA4003B3F17F4F0CD850
:104440000ED14FEAD07CB2F17F4F0CEB4C0C0CF14B
:10445000020C08BF4CEBD17C04E04FF0080C01E0EB
:104460004FEAD17C0CEB4C0324FA03F404F007046C
:10447000B4F1040C06D20EEB840CBDE810404CF0F5
:10448000010C6047DFE80CF0070802024FF0004023
:10449000A0F5800010BD0846420018BFD2F180721E
:1044A00088BF00F0004010BDFF2141EAD050C00598
:1044B0007047000090EA010F48BF81F000413FF5CE
:1044C00052AF421A04D882F00042A0EB020011441D
:1044D0004FEAD0524FF07F4C1CEA410FA2EBD15370
:1044E00018BF9CEA026F4AD04FF0004C4CEA002003
:1044F0004CEA012121FA03FCB0EB0C0C0FD412F0B2
:10450000FE0F36D05FEA4C001DD5001240EBC250C2
:1045100038BF70471CF03F0F18BF70470BE0A2F187
:1045200001025FEA1C2040EBC25038BF70471CF00C
:104530007F0F18BF7047C3F12003994014BF401E7E
:1045400020F00100704780084FEA122308BF70472F
:10455000B0FA80FCA2EB0C02CCF1280C60FA0CF053
:1045600093EA122F04BF00EBC25070474FEAC370AA
:104570007047130A5FEADC1008BF7047F6E79CEA51
:10458000026F04D010EA5C0F08BF0020704710B51E
:10459000FFF744FF40DFF63E81F000407047000027
:1045A00000000000000001020304060708090000E3
:1045B0000000010203040000DC45000800000020A8
:1045C0001C00000028010008F84500081C0000201D
:1045D000040800004401000829FDFFFF000000005E
:1045E00000000000000000000000000010000000BB
:0845F000010000000024F400AA
:04000005080000ED02
:00000001FF
