:020000040800F2
:1000000088110020D5010008A347000825470008F3
:10001000A14700081D060008357600080000000012
:10002000000000000000000000000000C14B0008BC
:100030002D06000800000000974B0008C34B000885
:10004000EF010008EF010008EF010008EF010008D0
:10005000EF010008EF010008EF010008EF010008C0
:10006000EF0100082F060008EF010008EF0100086B
:10007000EF010008EF010008EF010008EF010008A0
:10008000EF010008EF010008EF010008EF01000890
:100090007175000821060008EF0100083506000808
:1000A000EF010008EF010008EF010008EF01000870
:1000B000C94B0008EF010008EF010008EF0100083C
:1000C000EF010008EF010008EF010008EF01000850
:1000D000EF010008EF010008EF010008EF01000840
:1000E000EF010008EF010008EF01000800F002F83E
:1000F00000F060F80AA090E8000C82448344AAF162
:100100000107DA4501D100F055F8AFF2090EBAE85F
:100110000F0013F0010F18BFFB1A43F0010318473B
:100120004C8000006C8000000A444FF0000C10F876
:10013000013B13F0070408BF10F8014B1D1108BF65
:1001400010F8015B641E05D010F8016B641E01F805
:10015000016BF9D113F0080F1EBF10F8014BAD1C55
:100160000C1B09D16D1E58BF01F801CBFAD505E073
:1001700014F8016B01F8016B6D1EF9D59142D6D3CD
:10018000704700000023002400250026103A28BFF5
:1001900078C1FBD8520728BF30C148BF0B607047F9
:1001A0001FB59DE8030000F05BF900F02BF91FBDBF
:1001B00010B510BD00F0B0F91146FFF7F1FF07F0E0
:1001C0009BFF00F0CEF903B4FFF7F2FF03BC00F091
:1001D000FFF900000948804709480047FEE7FEE7AD
:1001E000FEE7FEE7FEE7FEE7FEE7FEE7FEE7FEE7E7
:1001F00004480549054A064B70470000C74B0008F4
:10020000ED000008880B002088110020880D0020D8
:10021000880D002070B5064600F006F9056806F165
:100220000B0020F00704B4429CBF002070BD2B4699
:100230006A68BAB11068A04210D304F1080188427C
:100240003CBF5068586007D351681019416011686D
:10025000091B016058601460101D70BD1346526880
:10026000002AE7D12146284600F0E6F80028DED132
:1002700070BD70B50446051F00F0D6F80068002C6C
:1002800014BF446870BD002C18BFAC423CBF204670
:100290006468F8D301680A18AA4218BF456003D100
:1002A0002A6805461144016028684119A1421CBF13
:1002B0006C6070BD6168696021680844286070BD29
:1002C000032A40F2308010F0030C00F0158011F882
:1002D000013BBCF1020F624498BF11F801CB00F85A
:1002E000013B38BF11F8013BA2F1040298BF00F8AE
:1002F00001CB38BF00F8013B11F0030300F025806B
:10030000083AC0F0088051F8043B083A51F804CB91
:10031000A0E80810F5E7121D5CBF51F8043B40F857
:10032000043BAFF30080D20724BF11F8013B11F862
:1003300001CB48BF11F8012B24BF00F8013B00F8A6
:1003400001CB48BF00F8012B704710B5203AC0F030
:100350000B80B1E81850203AA0E81850B1E81850C6
:10036000A0E81850BFF4F5AF5FEA027C24BFB1E803
:100370001850A0E8185044BF18C918C0BDE8104074
:100380005FEA827C24BF51F8043B40F8043B08BF7D
:100390007047D20728BF31F8023B48BF11F8012B44
:1003A00028BF20F8023B48BF00F8012B70474FF0F0
:1003B000000200B5134694469646203922BFA0E8B5
:1003C0000C50A0E80C50B1F12001BFF4F7AF0907C1
:1003D00028BFA0E80C5048BF0CC05DF804EB8900B2
:1003E00028BF40F8042B08BF704748BF20F8022BF5
:1003F00011F0804F18BF00F8012B7047704770470D
:100400007047000070B5064C7C44064D7D4403E007
:10041000206820448047241DAC42F9D170BD000003
:10042000807D0000807D0000004870472C0B00207C
:10043000704770477047704738B504460A46002039
:100440006946AFF30080002808BF38BD0246009916
:10045000204600F03FF8012038BD012000F054B8DC
:10046000F8B5AFF30080054600200C46102000BF11
:100470000646A819A0420DD9324669460020AFF3BE
:100480000080070008BF00F03FF80098A04218BFA6
:100490000546C419FFF7C8FF05600746F01D20F0A8
:1004A00007004619284600F00AF8B44208BFF8BD14
:1004B000A21B31463868BDE8F84000F00BB80021B7
:1004C0000160C0E901107047102070470048704774
:1004D000240B0020034640688C46002818BF884241
:1004E0003CBF03464068F8D318681844884207D0D8
:1004F0000CF1030020F00700001D411A521A0146BA
:10050000081D0A60FFF7B5BE10B500F039F8BDE868
:10051000104000F02FB870477546FFF7D7FFAE4682
:1005200005006946534620F00700854618B020B5FF
:10053000FFF75EFEBDE820404FF000064FF00007D9
:100540004FF000084FF0000B21F00701AC46ACE87B
:10055000C009ACE8C009ACE8C009ACE8C0098D46E8
:10056000704710B50446AFF300802046BDE8104048
:10057000FFF729BE002801D000F02AB8704700001C
:1005800010B5012805D0002103A000F027F80120B4
:1005900010BD09A1F8E7000053494752544D454D9D
:1005A0003A204F7574206F662068656170206D6514
:1005B0006D6F7279000000003A2048656170206D0F
:1005C000656D6F727920636F727275707465640007
:1005D00001491820ABBEFEE72600020070B50546B3
:1005E0000C460A2000E06D1C00F011F835B12878A7
:1005F0000028F8D102E0641C00F009F814B120785A
:100600000028F8D1BDE870400A20AFF3008008B59B
:1006100069468DF800000320ABBE08BDFEE7000070
:10062000014800F089BB0000B0010020704708209D
:1006300000F0D6BF202000F0D3BF72B600BFFEE7A7
:1006400070B50A480468001D0568001D066834443A
:1006500054B108220649204604F065F804220449F2
:100660001031284604F05FF870BD0000E8F7FF1F66
:100670006600002070B504460D4694F820600D48D1
:10068000854200D804E040F264610BA007F004FD4D
:10069000012E01D0022E06D120684069284321682E
:1006A0004861002070BD606A40F4802060620120D3
:1006B000F8E700007F8F03002E2E2F4472697665C5
:1006C00072732F53544D3332463178785F48414C22
:1006D0005F4472697665722F5372632F73746D3342
:1006E00032663178785F68616C5F63616E2E63009B
:1006F0002DE9F04705460C461746994695F820A087
:100700002868D0F80880A06810B1A068042800D13B
:1007100004E040F2CD4163A007F0BEFCE06810B1F8
:10072000E068022800D104E040F2CE415DA007F06D
:10073000B3FC2069082800D804E040F2CF4159A05A
:1007400007F0AAFCA06850B92068B0F5006F00D28D
:100750000FE040F2D24153A007F09EFC09E0606830
:10076000B0F1005F00D204E040F2D6414DA007F0A6
:1007700093FC207D10B1207D012800D104E04FF4CE
:100780009B6148A007F088FCBAF1010F02D0BAF1D2
:10079000020F79D108F0806030B908F0006018B914
:1007A00008F08050002871D0C8F30166022E06D9E7
:1007B000686A40F4000068620120BDE8F08701200B
:1007C000B040C9F80000A06850B92188E06840EA4C
:1007D0004151286800F5C07000EB061001600BE085
:1007E000D4E9011040EAC100E1680843296801F535
:1007F000C07101EB061108602169286800F5C0701E
:1008000000EB06104160207D01280DD1286800F51D
:10081000C07000EB0610406840F48071286800F555
:10082000C07000EB06104160F8790006B97940EA23
:100830000140797940EA012039790843296801F5B6
:10084000C07101EB0611C860F8780006B97840EA7B
:100850000140797840EA012039780843296801F598
:10086000C07101EB06118860286800F5C07000EBCC
:100870000610006840F00101286800F5C07000EB28
:1008800006100160002098E706E0FFE7686A40F480
:1008900000106862012090E7686A40F48020686276
:1008A00001208AE72E2E2F447269766572732F53CA
:1008B000544D3332463178785F48414C5F44726919
:1008C0007665722F5372632F73746D33326631788D
:1008D000785F68616C5F63616E2E63002DE9F041A3
:1008E00007460C463D6897F82080B8F1010F02D00A
:1008F000B8F1020F7DD12068B0F5803F00D204E04E
:100900004FF4547169A007F0C7FB6068B0F5803FF1
:1009100000D204E040F2513164A007F0BDFBA068B2
:10092000B0F5803F00D204E040F252315FA007F002
:10093000B3FBE068B0F5803F00D204E040F25331F1
:100940005AA007F0A9FBA06910B1A069012800D145
:1009500004E04FF4557155A007F09EFBE06910B11B
:10096000E069012800D104E040F255314FA007F0C2
:1009700093FB206910B12069012800D104E040F206
:1009800056314AA007F088FB206A10B1206A01287E
:1009900000D104E040F2573144A007F07DFB6069CC
:1009A0000D2800D804E040F2653140A007F074FB48
:1009B000D5F8000240F00100C5F80002207D00F0EB
:1009C0001F01012000FA01F6D5F81C02B043C5F85A
:1009D0001C02E069D8B9D5F80C02B043C5F80C0286
:1009E000A08880B2A18940EA014105F510706269D2
:1009F00000E054E040F83210208880B2218940EABB
:100A0000014105F51070626900EBC2004160E069C8
:100A1000012819D1D5F80C023043C5F80C02A08882
:100A200080B2218840EA014105F51070626940F802
:100A30003210A08980B2218940EA014105F5107089
:100A4000626900EBC2004160A06928B9D5F80402D0
:100A5000B043C5F8040204E0D5F804023043C5F8F9
:100A60000402206928B9D5F81402B043C5F814026D
:100A700004E0D5F814023043C5F81402206A0128B6
:100A800004D1D5F81C023043C5F81C02D5F8000289
:100A900020F00100C5F800020020BDE8F081786A6E
:100AA00040F4802078620120F7E700002E2E2F44CA
:100AB0007269766572732F53544D333246317878AC
:100AC0005F48414C5F4472697665722F5372632FA1
:100AD00073746D3332663178785F68616C5F63611F
:100AE0006E2E630070B504460D4694F820600D48E4
:100AF000854200D804E040F285610BA007F0CCFAF3
:100B0000012E01D0022E06D120684069A843216839
:100B10004861002070BD606A40F48020606201205E
:100B2000F8E700007F8F03002E2E2F447269766550
:100B300072732F53544D3332463178785F48414CAD
:100B40005F4472697665722F5372632F73746D33CD
:100B500032663178785F68616C5F63616E2E630026
:100B6000704700002DE9F04104460D4616461F4629
:100B700094F820800DB1012D00D104E040F2D45151
:100B80005FA007F089FAB8F1010F02D0B8F1020FA7
:100B90007ED15DB92068C06800F0030088B9606A42
:100BA00040F4001060620120BDE8F0812068006917
:100BB00000F0030028B9606A40F400106062012070
:100BC000F2E7206800F5D87000EB0510006800F02F
:100BD0000400B060B06840B9206800F5D87000EB40
:100BE00005100068400D306007E0206800F5D870FF
:100BF00000EB05100068C0087060206800F5D87030
:100C000000EB0510006800F00200F060206800F5BD
:100C1000D87000EB0510406800F00F0030612068CC
:100C200000F5D87000EB0510406800F47F40000A22
:100C3000B061206800F5D87000EB05104068000C2A
:100C40007061206800F5D87000EB0510806838707E
:100C5000206800F5D87000EB0510806800F47F4034
:100C6000000A7870206800F5D87000EB05108068E5
:100C700000F47F00000CB870206800F5D87000EB1D
:100C800005108068000EF870206800F5D87000E04C
:100C90002FE000EB0510C0683871206800F5D870AF
:100CA00000EB0510C06800F47F40000A78712068EE
:100CB00000F5D87000EB0510C06800F47F00000C50
:100CC000B871206800F5D87000EB0510C068000E00
:100CD000F87135B92068C06840F020002168C8600C
:100CE00005E02068006940F02000216808610020CC
:100CF0005AE7606A40F480206062012054E70000F7
:100D00002E2E2F447269766572732F53544D3332F1
:100D1000463178785F48414C5F4472697665722F3E
:100D20005372632F73746D3332663178785F686104
:100D30006C5F63616E2E63002DE9F05F0446002551
:100D4000206846692068D0F8049020688768206889
:100D5000D0F80CA02068D0F810B02068D0F8188027
:100D600006F00100002855D007F00100C0B10120B5
:100D70002168886007F0020018B1204600F0A3FB4C
:100D80000EE007F0040010B145F4006508E007F03C
:100D9000080010B145F4805502E0204600F092FBB7
:100DA00007F48070C8B14FF480702168886007F440
:100DB000007018B1204600F088FB0EE007F4806058
:100DC00010B145F4005508E007F4006010B145F497
:100DD000804502E0204600F077FB07F48030C8B180
:100DE0004FF480302168886007F4003018B1204645
:100DF00000F06DFB0EE007F4802010B145F40045D3
:100E000008E007F4002010B145F4803502E02046E8
:100E100000F05CFB06F0080038B10AF0100020B1C9
:100E200045F4007510202168C86006F0040040B148
:100E30000AF0080028B108202168C860204600F0A8
:100E4000FDFA06F0020038B12068C06800F0030027
:100E500010B1204600F0F3FA06F0400038B10BF074
:100E6000100020B145F4806510202168086106F06B
:100E7000200040B10BF0080028B10820216808616B
:100E8000204600F0DDFA06F0100038B12068006955
:100E900000F0030010B1204600F0D4FA06F4003050
:100EA00040B109F0100028B11020216848602046A8
:100EB00000F0D8FA06F4803040B109F0080028B1FB
:100EC000082021684860204600F002FB06F400403C
:100ED00088B309F0040078B306F4807020B108F0FC
:100EE000010008B145F0010506F4007020B108F0DA
:100EF000020008B145F0020506F4806020B108F058
:100F0000040008B145F0040506F40060A0B108F043
:100F1000700088B108F07000402817D006DC102857
:100F20000BD020280CD0302819D10CE0502810D03C
:100F3000602814D110E01DE019E045F008050FE02D
:100F400045F010050CE045F0200509E045F04005AE
:100F500006E045F0800503E045F4807500E000BF41
:100F600000BF2068806920F070002168886104203B
:100F7000216848602DB1606A284360622046FFF70F
:100F8000EFFDBDE8F09F000070B504460CB90120EC
:100F900070BDCE492068884200D104E040F21D11A6
:100FA000CBA007F079F8207E10B1207E012800D177
:100FB00004E04FF48F71C6A007F06EF8607E10B1A8
:100FC000607E012800D104E040F21F11C0A007F0AC
:100FD00063F8A07E10B1A07E012800D104E04FF498
:100FE0009071BBA007F058F8E07E10B1E07E0128B8
:100FF00000D104E040F22111B5A007F04DF8207FA8
:1010000010B1207F012800D104E04FF49171B0A00D
:1010100007F042F8607F10B1607F012800D104E042
:1010200040F22311AAA007F037F8A06858B1A068D1
:10103000B0F1804F07D0A068B0F1004F03D0A06896
:10104000B0F1404F00D104E04FF49271A0A007F03E
:1010500023F8E06858B1E068B0F1807F07D0E0681D
:10106000B0F1007F03D0E068B0F1407F00D104E030
:1010700040F2251196A007F00FF82069D8B3206937
:10108000B0F5803F37D02069B0F5003F33D02069FC
:10109000B0F5403F2FD02069B0F5802F2BD02069CC
:1010A000B0F5A02F27D02069B0F5C02F23D020693C
:1010B000B0F5E02F1FD02069B0F5002F1BD02069BC
:1010C000B0F5102F17D02069B0F5202F13D020696C
:1010D000B0F5302F0FD02069B0F5402F0BD020692C
:1010E000B0F5502F07D02069B0F5602F03D02069EC
:1010F000B0F5702F00D104E04FF4937174A006F0A6
:10110000CBFF6069D8B16069B0F5801F17D0606906
:10111000B0F5001F13D06069B0F5401F0FD06069B3
:10112000B0F5800F0BD06069B0F5A00F07D06069F3
:10113000B0F5C00F03D06069B0F5E00F00D104E056
:1011400040F2271162A006F0A7FF606820B1606836
:10115000B0F5806F00D804E04FF494715CA006F005
:101160009BFF94F8200010B9204600F007F9206892
:10117000006840F001002168086000F0A7FC054607
:101180000DE000F0A3FC401B0A2808D9606A40F477
:1011900000306062052084F820000120F8E6206815
:1011A000406800F001000028EBD02068006820F0C3
:1011B00002002168086000F089FC05460DE000F09F
:1011C00085FC401B0A2808D9606A40F40030606240
:1011D000052084F820000120DAE62068406800F04D
:1011E00002000028EBD1207E012806D1206800688B
:1011F00040F080002168086005E02068006820F069
:10120000800021680860607E012806D1206800689F
:1012100040F040002168086005E02068006820F088
:10122000400021680860A07E012806D1206800687F
:1012300040F020002168086005E02068006820F088
:10124000200021680860E07E012806D1206800683F
:1012500020F010002168086005E02068006840F078
:10126000100021680860207F012806D120680068EE
:1012700040F008002168086005E02068006820F060
:10128000080021680860607F012806D12068006896
:1012900040F004002168086005E02068006820F044
:1012A000040021680860D4E9020108432169084369
:1012B000616908436168491E08432168C8610020CC
:1012C0006062012084F82000002061E60064004094
:1012D0002E2E2F447269766572732F53544D33321C
:1012E000463178785F48414C5F4472697665722F69
:1012F0005372632F73746D3332663178785F68612F
:101300006C5F63616E2E63002DE9F04105460C466B
:10131000002795F82060072C00D804E040F2945193
:1013200008A006F0B9FE012E01D0022E07D12868D0
:10133000806800EA8460B0EB846F00D001273846F3
:10134000BDE8F0812E2E2F447269766572732F539B
:10135000544D3332463178785F48414C5F4472696E
:101360007665722F5372632F73746D3332663178E2
:10137000785F68616C5F63616E2E630010B586B044
:1013800004460020029003900490059027492068AD
:10139000884249D100BF2648C06940F00070244906
:1013A000C8610846C06900F00070019000BF00BF2E
:1013B00000BF0846806940F00800886108468069DF
:1013C00000F00800019000BF00BF881502900020C7
:1013D0000390049002A9174800F010F94FF4007030
:1013E0000290022003900320059002A9114800F00A
:1013F00005F900BF1049486820F4C04040F0E060A3
:1014000040F48040486000BF00221146142000F0E4
:10141000B5FD142000F07CFD00221146152000F0DF
:10142000ADFD152000F074FD06B010BD0064004055
:1014300000100240000C014000000140704770475E
:101440007047000010B50446044806F08AFC0448C2
:101450000088401C0249088010BD0000BC0200202A
:101460001A000020704770B5044694F82000012847
:1014700022D1022084F820002068006820F00100BA
:101480002168086000F022FB05460DE000F01EFB1D
:10149000401B0A2808D9606A40F4003060620520C9
:1014A00084F82000012070BD2068406800F0010031
:1014B0000028EBD16062F6E7606A40F400206062C9
:1014C0000120F0E7704770477047704770477047DA
:1014D0007047000010B504460CB9012010BD0A4940
:1014E0002068884200D103E0682108A006F0D4FDFE
:1014F000607920B900202071204600F023F80120F7
:1015000060710020EAE70000003002402E2E2F44D8
:101510007269766572732F53544D33324631787841
:101520005F48414C5F4472697665722F5372632F36
:1015300073746D3332663178785F68616C5F6372A3
:10154000632E630008B5094A016891420DD100BFBE
:101550000749496941F04001054A5161114649690D
:1015600001F04001009100BF00BF08BD0030024003
:101570000010024070B5044600F0A8FA0646254661
:10158000681C10B104480078054400BF00F09EFAC2
:10159000801BA842FAD370BD8800002070B50446B5
:1015A000082C05D0202C0BD0B4F5005F12D10CE034
:1015B00006F0CEF905462946084806F024FA0AE066
:1015C0000221064806F01FFA05E00021034806F054
:1015D0001AFA00E000BF00BF70BD0000B802002092
:1015E00010B5044604480068204020B10248046059
:1015F0002046FFF7D3FF10BD140401402DE9FC5F26
:1016000005460C46002700200190DB4885420BD0A0
:10161000DA48854208D0DA48854205D0D948854263
:1016200002D0D948854200D103E0BD21D7A006F001
:1016300033FD208880B220B120686FF30F0000B91D
:1016400003E0BE21D1A006F027FD606830B36068DA
:10165000012823D06068112820D0606802281DD09E
:10166000606812281AD0D8496068884216D0D749D5
:101670006068884212D0D649606888420ED0D54949
:10168000606888420AD0D4496068884206D0D3494D
:101690006068884202D06068032800D103E0BF215F
:1016A000BAA006F0F9FC60E1012000FA07F8206812
:1016B00000EA080646456FD1AF4885420BD0AF48D7
:1016C000854208D0AE48854205D0AE48854202D05A
:1016D000AD48854200D103E0CD21ACA006F0DCFC92
:1016E000B94A6068811A90426AD00EDC032875D02E
:1016F00006DC002863D0012819D002286FD139E018
:10170000112825D01228F9D147E0B1F5881F5BD008
:1017100006DCB1F5803F56D0B1F5801F79D150E09D
:10172000B1F5001F4ED0B1F5041F72D14DE0E06855
:10173000022805D0E068012802D0E068032800D123
:1017400003E0D52191A006F0A7FCE068019061E0DC
:10175000E068022805D0E068012802D0E06803288C
:1017600000D103E0DC2189A006F096FCE068001DB2
:1017700001904FE0E068022805D0E068012802D01F
:10178000E068032800D103E0E32180A006F084FC98
:10179000E068083001903DE0DCE0E068022805D018
:1017A000E068012802D0E068032800D103E0EA21C4
:1017B00076A006F071FCE0680C3001902AE000BFD2
:1017C00000BF00BF00BF00BF00BFA06828B1A06875
:1017D000012802D0A068022802D105E016E018E036
:1017E000F7216AA006F058FCA06810B90420019007
:1017F0000BE0A068012804D108200190C5F81080F2
:1018000003E008200190C5F8148003E00020019057
:1018100000E000BF00BFFF2E01D8284600E0281DD1
:101820008246FF2E01D8B80002E0A7F10800800030
:101830008346DAF800000F2101FA0BF18843019981
:1018400001FA0BF10843CAF80000606800F080500C
:10185000B0F1805F7ED100BF6148806940F0010037
:101860005F4988610846806900F00100009000BF70
:1018700000BF4FEAB130B90850F82190B807010F06
:101880000F20884029EA00093B48854201D1002009
:101890000FE03A48854201D101200AE038488542EC
:1018A00001D1022005E03748854201D1032000E044
:1018B0000420B907090F884040EA09094948B908D6
:1018C00040F82190606800F48030B0F5803F05D189
:1018D0004548006830434449086004E042480068D5
:1018E000B04341490860606800F40030B0F5003F43
:1018F00007D13D48001D006830433B49091D086081
:1019000006E03948001D0068B0433749091D0860EA
:10191000606800F48010B0F5801F07D132480830AD
:101920000068304330490831086006E02E4808302E
:101930000068B0432C4908310860606800F400106A
:10194000B0F5001F09D128480C3000683043264903
:101950000C3100E008E0086006E023480C30006825
:10196000B04321490C3108607F1C2068F8400028F2
:101970007FF49AAEBDE8FC9F00080140000C0140D6
:101980000010014000140140001801402E2E2F4489
:101990007269766572732F53544D333246317878BD
:1019A0005F48414C5F4472697665722F5372632FB2
:1019B00073746D3332663178785F68616C5F67701D
:1019C000696F2E630000000000001110000021105C
:1019D0000000311000001210000022100000321030
:1019E00000100240080001400004014070B50646A6
:1019F0000C46A0B218B1200C000400B904E04FF46A
:101A0000DA7105A006F048FBB068204008B1012556
:101A100000E00025284670BD2E2E2F4472697665A1
:101A200072732F53544D3332463178785F48414CAE
:101A30005F4472697665722F5372632F73746D33CE
:101A400032663178785F68616C5F6770696F2E63AA
:101A50000000000070B506460C461546A0B218B14D
:101A6000200C000400B904E04FF4EA7108A006F06D
:101A700013FB0DB1012D00D104E040F2D51104A0FB
:101A800006F00AFB0DB1346101E02004306170BD45
:101A90002E2E2F447269766572732F53544D333254
:101AA000463178785F48414C5F4472697665722FA1
:101AB0005372632F73746D3332663178785F686167
:101AC0006C5F6770696F2E6300000000014800685A
:101AD000704700008000002070B504460CB901205A
:101AE00070BDA1492068884203D0A049206888427F
:101AF00000D104E040F2D1119DA006F0CDFA60685B
:101B000020B1A9496068884200D804E04FF4E97127
:101B100097A006F0C1FAA06818B1A068B0F5804F90
:101B200000D104E040F2D31191A006F0B5FAE068CC
:101B30006FF3090000B904E04FF4EA718CA006F0DD
:101B4000ABFA2069B0F5804F03D02069B0F5404F63
:101B500000D104E040F2D51185A006F09DFA60693D
:101B600010B16069012800D104E04FF4EB7180A04E
:101B700006F092FAA06920F0FE0000B904E040F2FD
:101B8000D7117BA006F088FAE06910B1E06940281F
:101B900000D104E04FF4EC7175A006F07DFA206AE4
:101BA00010B1206A802800D104E040F2D91170A061
:101BB00006F072FA94F83D0028B9002084F83C0041
:101BC000204600F0FBF8242084F83D0020680068DF
:101BD00020F00100216808602068006840F400409F
:101BE000216808602068006820F4004021680860CF
:101BF00001F004FC05466D496068884206D86C48CF
:101C0000854201D2012007E0002005E069488542B5
:101C100001D2012000E00020012800D160E76648E1
:101C2000B5FBF0F62068406820F03F0030432168A3
:101C300048605E496068884201D8701C07E04FF434
:101C4000967070434FF47A71B0FBF1F0401C21683C
:101C5000096A21F03F01084321680862534960681E
:101C6000884214D8681E61684900B0FBF1F0401C3E
:101C7000C0F30B00042801D204203DE0681E616817
:101C80004900B0FBF1F0401CC0F30B0034E0A06849
:101C900038B9681E616801EB4101B0FBF1F0401CEE
:101CA0000AE0681E616801EBC10202EB0111B0FBA2
:101CB000F1F0401C40F48040C0F30B0008B9012053
:101CC0001AE0A06848B9681E616801EB4101B0FBE9
:101CD000F1F0401CC0F30B000CE0681E616801EBE2
:101CE000C10202EB0111B0FBF1F0401CC0F30B008C
:101CF00040F4804040F400402168C9694CF6FF720E
:101D0000914308432168C861D4E907010843216869
:101D1000096821F0C001084321680860D4E9031074
:101D200008432168896848F2FF32914308432168DB
:101D30008860D4E9050108432168C96821F0FF01E2
:101D400008432168C8602068006840F001002168ED
:101D5000086000202064202084F83D0000202063DB
:101D600084F83E0000BFBBE600540040005800402D
:101D70002E2E2F447269766572732F53544D333271
:101D8000463178785F48414C5F4472697665722FBE
:101D90005372632F73746D3332663178785F686184
:101DA0006C5F6932632E6300801A0600A086010012
:101DB00080841E0000093D0040420F0010B586B02F
:101DC0000446002002900390049005901549206875
:101DD000884225D100BF1448806940F008001249AC
:101DE00088610846806900F00800019000BF00BFCC
:101DF000C0200290122003900320059002A90B48F6
:101E0000FFF7FCFB00BF0848C06940F4001006491A
:101E1000C8610846C06900F40010019000BF00BF0F
:101E200006B010BD0054004000100240000C0140FC
:101E3000034800680349097808440149086070476D
:101E4000800000208800002010B50848006840F09D
:101E5000100006490860032000F0FAF8002000F0A6
:101E600007F800F02BF8002010BD00000020024011
:101E700070B504460E4800784FF47A71B1FBF0F06B
:101E80000C490968B1FBF0F5284601F033FE08B1B2
:101E9000012070BD102C07D200222146501E00F0F8
:101EA0006DF80548046001E00120F2E70020F0E74A
:101EB000880000208C0000208400002008B500BFAE
:101EC0001148806940F001000F4988610846806927
:101ED00000F00100009000BF00BF00BF0846C069CD
:101EE00040F08050C8610846C06900F08050009002
:101EF00000BF00BF00BF0549486820F0E06040F027
:101F00000070486000BF08BD0010024000000140A2
:101F100010B50446002C00DB03E0BE2108A006F04B
:101F2000BBF82046002809DB00F01F020121914088
:101F30004209920002F1E022C2F8001100BF10BD78
:101F40002E2E2F447269766572732F53544D33329F
:101F5000463178785F48414C5F4472697665722FEC
:101F60005372632F73746D3332663178785F6861B2
:101F70006C5F636F727465782E6300002DE9F05F0B
:101F800080460C4615460027102D00D203E0AA21FA
:101F900020A006F081F8102C00D203E0AB211DA098
:101FA00006F07AF806F054F80746394622462B46E2
:101FB00001F00700C0F1070ABAF1040F02D94FF08F
:101FC000040A01E0C0F1070AD14600F1040ABAF19F
:101FD000070F02D24FF0000A01E0A0F1030AD44635
:101FE0004FF0010A0AFA09FAAAF1010A0AEA020AFA
:101FF0000AFA0CFA4FF0010B0BFA0CFBABF1010BD8
:102000000BEA030B4AEA0B063146404606F028F875
:10201000BDE8F09F2E2E2F447269766572732F53A0
:10202000544D3332463178785F48414C5F44726991
:102030007665722F5372632F73746D333266317805
:10204000785F68616C5F636F727465782E630000FF
:1020500010B50446072C07D0062C05D0052C03D05C
:10206000042C01D0032C00D103E0922109A006F03A
:1020700013F800BF04F00701154A10684FF6FF027D
:102080001040144A024342EA0120114A106000BF86
:1020900010BD00002E2E2F447269766572732F5387
:1020A000544D3332463178785F48414C5F44726911
:1020B0007665722F5372632F73746D333266317885
:1020C000785F68616C5F636F727465782E6300007F
:1020D0000CED00E00000FA0570B505460C4604F072
:1020E0008000802808D104F0070000EB800605F18D
:1020F000280000EBC60105E004EB840605F5B4708A
:1021000000EBC6011AB900200873CB8004E001205F
:1021100008730B81180C4881002070BD704770B5A2
:1021200004460D4605EB850304F1280101EBC301CC
:102130004A692946D4F8E80203F063FB70BD70B524
:1021400004460D4605EB850304F5B47101EBC301AC
:102150004A692946D4F8E80203F0D3FB70BD70B594
:1021600004460E4606F0800080280AD106F00700DB
:1021700000EB800104F1280000EBC105012068702C
:1021800009E006F0070000EB800104F5B47000EBF5
:10219000C1050020687006F00700287000BF94F8A1
:1021A000A802012801D1022070BD012084F8A802F4
:1021B00000BF2946206804F015FA00BF002084F80B
:1021C000A80200BF00BFEFE770B504460E4606F058
:1021D0000F006168884201D9012070BD06F08000BF
:1021E00080280AD106F0070000EB800104F12800E6
:1021F00000EBC1050120687009E006F0070000EB64
:10220000800104F5B47000EBC10500206870002067
:10221000A87006F00700287000BF94F8A8020128F3
:1022200001D10220D9E7012084F8A80200BF294685
:10223000206804F033FB00BF002084F8A80200BF30
:1022400000BFCAE72DE9F04105460C46174607F4E2
:102250008040002850D02868B0F85010207801EB5A
:10226000C000801C296801F5806131F81000C0F3BE
:102270000906A069B04203D3A069801BA06101E0F8
:102280000020A061A069A8B900BF22785200296887
:1022900031F812104BF68F7201EA020080F4005000
:1022A00040F4004141F0800123785B002A6822F865
:1022B000131000BF07F04000A8B100BF00BF227894
:1022C0005200296831F8121048F68F7201EA0200B4
:1022D00040F4004141F0C00123785B002A6822F8F5
:1022E000131000BF00BF002E55D02289616933460C
:1022F000286805F04FF94EE02868B0F850102078B3
:1023000001EBC000801D296801F5806131F81000E3
:10231000C0F30906A069B04203D3A069801BA06185
:1023200001E00020A061A069A8B900BF2278520096
:10233000296831F812104BF68F7201EA020080F41E
:10234000005040F4004141F0800123785B002A688E
:1023500022F8131000BF07F04000A8B900BF00BF6B
:1023600022785200296831F8121048F68F7201EA7B
:10237000020040F4004141F0C00123785B002A686C
:1023800022F8131000BF00BF2EB162896169334685
:10239000286805F0FFF83046BDE8F0812DE9F047E8
:1023A00005460C46904608F04000002871D0286889
:1023B000B0F85010207801EBC000801C296801F5AE
:1023C000806131F81000C0F30907A069B84203D951
:1023D000A069C01BA06101E00020A061A0690028E5
:1023E0007ED100BF6078C8B900BF29682A68B2F8FA
:1023F000502011442278022303EBC20201F58063CE
:1024000003EB420000BF028848F2FF331A4002800B
:10241000028842F40042028000BF13E06078012885
:1024200010D100BF28682A68B2F8502010442278E2
:10243000022303EBC20200F5806303EB420100229A
:102440000A8000BF00BF00BF2968607810BB00BFD2
:102450002B68D5F800C0BCF850C0634494F800C0A5
:102460004FF0060909EBCC0C03F5806909EB4C0031
:1024700000BFB0F800C048F2FF390CEA090CA0F820
:1024800000C0B0F800C04CF4004CA0F800C000BF81
:1024900011E0C0E0607801280DD12868B0F8500044
:1024A00001442078062303EBC00001F5806303EBB1
:1024B00040020020108000BF21782846FFF72FFE41
:1024C00008F48040002816D000BF00BF22785200D8
:1024D000296831F8121048F68F7201EA020000E014
:1024E0000AE040F4004141F4814123785B002A680E
:1024F00022F8131000BFCAE108F48040A8B100BF61
:1025000000BF22785200296831F8121048F68F7205
:1025100001EA020040F4004141F4814223785B006B
:10252000296821F8132000BF00BF94F82400012877
:10253000E1D1606938446061E0693844E061216953
:10254000206A884204D32669206A801B20620BE03F
:10255000206A20B93E46002084F8240004E00020D0
:1025600084F82400266A206200BF6078B8BB00BFF0
:102570002A682968B1F850100A442178022303EB35
:10258000C10102F5806303EB4101084600BF56B963
:10259000038848F2FF3C03EA0C030380038843F4FA
:1025A0000043038019E03E2E0BD800BF710806F0EF
:1025B000010303B1491C4FF6FF7303EA8123038033
:1025C0000BE000BF710906F01F0303B9491E4FF469
:1025D000004343EA8123038000BF00BF13E0FFE70D
:1025E000607801280FD100BF28682A68B2F850200F
:1025F00010442278022303EBC20200F5806303EB50
:1026000042010E8000BF00BFB3B222896169286811
:1026100004F0EFFF3BE12868B0F85010207801EBA0
:10262000C000801D296801F5806131F81000C0F3F9
:102630000907A069B84203D3A069C01BA06101E0EB
:102640000020A061A06900287DD100BF6078C8B9D2
:1026500000BF29682A68B2F850201144227802236A
:1026600003EBC20201F5806303EB420000BF028866
:1026700048F2FF331A400280028842F4004202808E
:1026800000BF13E06078012810D100BF28682A68D5
:10269000B2F8502010442278022303EBC20200F566
:1026A000806303EB420100220A8000BF00BF00BF2D
:1026B0002968607808BB00BF2B68D5F800C0BCF85B
:1026C00050C0634494F800C04FF0060909EBCC0CED
:1026D00003F5806909EB4C0000BFB0F800C048F278
:1026E000FF390CEA090CA0F800C0B0F800C04CF4A7
:1026F000004CA0F800C000BF10E0607801280DD1A8
:102700002868B0F8500001442078062303EBC0008D
:1027100001F5806303EB40020020108000BF2178A8
:102720002846FFF7FCFC08F48040002816D100BFC3
:1027300000BF22785200296831F8121048F68F72D3
:1027400001EA020000E00AE040F4004141F4814166
:1027500023785B002A6822F8131000BF97E008F482
:102760008040A8B900BF00BF22785200296831F824
:10277000121048F68F7201EA020040F4004141F461
:10278000814123785B002A6822F8131000BF00BF44
:1027900094F8240001287AD1606938446061E069C6
:1027A0003844E0612169206A884204D32669206A9E
:1027B000801B20620BE0206A20B93E46002084F88E
:1027C000240004E0266A0020206284F8240000BF70
:1027D0002A68607890BB00BFD5F800C02968B1F8BE
:1027E00050108C4421784FF0060909EBC1010CF51B
:1027F000806909EB4101084600BF76B9B0F8009046
:1028000048F2FF3A09EA0A09A0F80090B0F80090EF
:1028100049F40049A0F8009020E03E2E0FD800BFF8
:10282000710806F00109B9F1000F00D0491C4FF6FC
:10283000FF7909EA8129A0F800900FE010E000BFBD
:10284000710906F01F09B9F1000F00D1491E4FF4BC
:10285000004949EA8129A0F8009000BF00BF0FE0BD
:10286000607801280CD12868B0F850000244207824
:10287000062101EBC00002F5806101EB40031E80E0
:1028800000BFB3B262896169286804F0B2FE00BF7C
:1028900022785200296831F8121048F6BF7201EA16
:1028A000020080F0100080F0200040F4004141F070
:1028B000800123785B002A6822F8131000BF0020F3
:1028C000BDE8F0872DE9F04705460E4690461F46C5
:1028D0004FF0000906F0800080280AD106F00700BA
:1028E00000EB800105F1280000EBC10401206070BD
:1028F00009E006F0070000EB800105F5B47000EB7D
:10290000C1040020607006F007002070C4F8108039
:10291000E770607808B12078E081022F01D10020B3
:10292000207100BF95F8A802012802D10220BDE85D
:10293000F087012085F8A80200BF2146286803F02F
:1029400027FC00BF002085F8A80200BF4846EEE73C
:102950002DE9F04105460E461746984606F0070059
:1029600000EB800105F5B47000EBC1046761C4F8A9
:1029700018800020E061607006F00700207006F00B
:10298000070020B92146286804F023F803E0214617
:10299000286804F01EF80020BDE8F08170B50446F8
:1029A0000D4605F007006168884201D9012070BD1D
:1029B00005F0800080280AD105F0070000EB8001B7
:1029C00004F1280000EBC1060120707007E005EB60
:1029D000850104F5B47000EBC10600207070012081
:1029E000B07005F00700307000BF94F8A80201280D
:1029F00001D10220DBE7012084F8A80200BF3146A4
:102A0000206803F0B8FF05F0070020B904F52C7129
:102A1000206803F040FF00BF002084F8A80200BF38
:102A200000BFC4E72DE9F04105460E4690461F461B
:102A300006F0070000EB800105F1280000EBC1045F
:102A4000C4F81480A761012084F8240027620020C4
:102A5000E0610120607006F00700207006F00700BA
:102A600020B92146286803F0B4FF03E02146286816
:102A700003F0AFFF0020BDE8F0817FB50446206879
:102A800004F084FD00F40040B0F5004F02D1204670
:102A900001F088FE206804F079FD00F48060B0F554
:102AA000806F0FD12068B0F844004FF6FF31084026
:102AB0002168A1F84400204600F0C6F90021204614
:102AC00000F0E2F9206804F061FD00F48040B0F508
:102AD000804F08D12068B0F844004BF6FF710840E1
:102AE0002168A1F84400206804F050FD00F4005073
:102AF000B0F5005F08D12068B0F844004DF6FF71D2
:102B000008402168A1F84400206804F03FFD00F46B
:102B10008050B0F5805F1DD12068B0F840004FF6BE
:102B2000FB7108402168A1F840002068B0F840001F
:102B30004FF6F77108402168A1F84000204600F0E8
:102B400095F92068B0F844004EF6FF7108402168FE
:102B5000A1F84400206804F019FD00F40060B0F50D
:102B6000006F55D1002507E06900206830F811009A
:102B70002DF81500681CC5B2082DF5D32068B0F8F3
:102B8000400040F001002168A1F840002068B0F842
:102B900040004FF6FE7108402168A1F8400000BFD8
:102BA0002068B0F8440000F480600028F8D0206865
:102BB000B0F844004FF6FF3108402168A1F8440006
:102BC000002507E03DF815006A00216821F8120091
:102BD000681CC5B2082DF5D32068B0F8400040F05D
:102BE00008002168A1F840002068B0F844004FF2C6
:102BF000FF7108402168A1F844002068B0F8400047
:102C000040F004002168A1F84000204600F07EF961
:102C1000206804F0BBFC00F40070B0F5007F0BD11D
:102C20002068B0F844004FF6FF5108402168A1F831
:102C30004400204600F021F9206804F0A7FC00F4CD
:102C40008070B0F5807F08D12068B0F844004FF65E
:102C5000FF6108402168A1F844007FBD30B585B010
:102C6000044614B9012005B030BD57492068884298
:102C700000D103E08E2155A005F00EFA94F8A902C8
:102C800028B9002084F8A802204600F0BBF80320F1
:102C900084F8A902206803F0F4FD142204F1100165
:102CA0006846FDF752FB94E80F0003F097FC20B153
:102CB000022084F8A9020120D5E70021206804F051
:102CC0008EFC002531E0012105EB850204F128008E
:102CD00000EBC200417005EB850104F1280000F80B
:102CE000315005EB850100EBC100C581002105EBEA
:102CF000850204F1280000EBC200C17005EB8502DB
:102D000004F1280000EBC200016105EB850204F12B
:102D1000280000EBC200416105EB850204F12800A8
:102D200000EBC2008161681CC5B26068A842CAD8C5
:102D300000252AE0002105EB850204F5B47000EBC4
:102D4000C200417005EB850104F5B47000F8315004
:102D5000002105EB850200EBC200C17005EB850286
:102D600004F5B47000EBC200016105EB850204F5C7
:102D7000B47000EBC200416105EB850204F5B4704C
:102D800000EBC2008161681CC5B26068A842D1D85E
:102D9000142204F110016846FDF7D7FA94E80F00F9
:102DA00003F064FD20B1022084F8A90201205AE753
:102DB000002084F82400012084F8A902206803F090
:102DC00052FD00204FE70000005C00402E2E2F44F3
:102DD0007269766572732F53544D33324631787869
:102DE0005F48414C5F4472697665722F5372632F5E
:102DF00073746D3332663178785F68616C5F7063CD
:102E0000642E630038B504460D492068884215D108
:102E100000BF0C48C06940F400000A49C861084678
:102E2000C06900F40000009000BF00BF00221146FE
:102E30001420FFF7A3F81420FFF76AF838BD00004C
:102E4000005C00400010024070B504460125A068F7
:102E5000022801D0FDF7F1FB2946D4F8E80202F080
:102E60006DFED4F8E80202F01FFE70BD10B50446F6
:102E7000D4F8E80202F046FE10BD10B50446D4F8BE
:102E8000E80202F04AFE10BD70B504460D4600BFD0
:102E900094F8A802012801D1022070BD012084F815
:102EA000A80200BF84F824502946206804F09AFB49
:102EB00000BF002084F8A80200BF00BFEDE710B5F6
:102EC000044604F52C71D4F8E80202F04EFE10BD61
:102ED00010B5044600BF94F8A802012801D10220D1
:102EE00010BD012084F8A80200BF206804F036FB62
:102EF00001212046FFF712F9206803F0B1FC00BF62
:102F0000002084F8A80200BF00BFE9E710B504461E
:102F1000D4F8E80202F082FEA06928B103480068F4
:102F200040F006000149086010BD000010ED00E00F
:102F3000F8B5044600260025207800F0010048B9C5
:102F4000207800F00200022804D0207800F0100061
:102F5000102800D103E06C2161A005F09DF82078D5
:102F600000F0010000287DD00027606858B160683B
:102F7000B0F5807F07D06068B0F5007F03D060684F
:102F8000B0F5407F00D103E0742155A005F084F82E
:102F90006248C06900F0805070B900BF5F48C069E6
:102FA00040F080505D49C8610846C06900F080501B
:102FB000009000BF00BF01275948006800F48070EE
:102FC000B0B95748006840F4807055490860FEF772
:102FD0007DFD064606E0FEF779FD801B642801D9D9
:102FE0000320F8BD4E48006800F480700028F2D03D
:102FF0004A48006A00F440752DB3A08800F4407080
:10300000A84220D04548006A20F440750120454977
:103010000860002008604148056205F0010090B199
:10302000FEF754FD064608E0FEF750FD801B41F216
:103030008831884201D90320D3E73848006A00F07C
:1030400002000028F0D03548006A20F44070616822
:10305000084332490862012F06D10846C06920F0B2
:10306000805000E001E0C86100BF207800F002005D
:1030700002281AD1A06858B1A068B0F5804F07D0D7
:10308000A068B0F5004F03D0A068B0F5404F00D164
:1030900003E0B92112A004F0FFFF2048406820F4AB
:1030A0004040A16808431D494860207800F01000A6
:1030B000102813D1E068B0F5800F01D0E06800B9A6
:1030C00004E040F2151106A004F0E6FF1348406842
:1030D00020F48000E168084310494860002080E740
:1030E0002E2E2F447269766572732F53544D3332EE
:1030F000463178785F48414C5F4472697665722F3B
:103100005372632F73746D3332663178785F686100
:103110006C5F7263635F65782E630000001002408D
:10312000007000404004424270B504460D460CB9A0
:10313000012070BD207800F0010070B9207800F007
:103140000200022809D0207800F00400042804D0EE
:10315000207800F00800082800D104E04FF44E71F8
:1031600090A004F099FF1DB1012D01D0022D00D1D6
:1031700004E040F239318BA004F08EFF97480068DC
:1031800000F00700A8420ED29448006820F0070023
:103190002843924908600846006800F00700A842EA
:1031A00001D00120C5E7207800F0020002283DD1BF
:1031B000207800F00400042805D18948406840F4D4
:1031C000E06087494860207800F00800082805D1B1
:1031D0008348406840F4605081494860A068B8B1B5
:1031E000A068802814D0A068902811D0A068A028DA
:1031F0000ED0A068B0280BD0A068C02808D0A06866
:10320000D02805D0A068E02802D0A068F02800D11E
:1032100004E040F25F3163A004F03EFF7048406874
:1032200020F0F000A16808436D494860207800F064
:103230000100002845D0606828B16068012802D0EC
:103240006068022800D104E040F2663155A004F025
:1032500023FF6068012806D16148006800F400304F
:1032600090B9012065E76068022806D15C480068D3
:1032700000F0007040B901205BE75948006800F099
:10328000020008B9012054E75548406820F00300C7
:103290006168084352494860FEF718FC064608E09A
:1032A000FEF714FC801B41F28831884201D90320CB
:1032B0003FE74B48406800F00C006168B0EB810FBD
:1032C000EED14648006800F00700A8420ED94348F6
:1032D000006820F00700284340490860084600685D
:1032E00000F00700A84201D0012022E7207800F07A
:1032F000040004281FD1E06878B1E068B0F5806F61
:103300000BD0E068B0F5A06F07D0E068B0F5C06FF3
:1033100003D0E068B0F5E06F00D104E04FF46971CC
:1033200020A004F0B9FE2E48406820F4E060E16877
:1033300008432B494860207800F00800082820D175
:10334000206978B12069B0F5806F0BD02069B0F5A5
:10335000A06F07D02069B0F5C06F03D02069B0F529
:10336000E06F00D104E040F2AB310EA004F094FE17
:103370001B48406820F46050216940EAC1001849A8
:10338000486000F05BF816494968C1F30311154A1B
:10339000515CC8401449086014480068FEF768FD95
:1033A0000020C6E62E2E2F447269766572732F5365
:1033B000544D3332463178785F48414C5F447269EE
:1033C0007665722F5372632F73746D333266317862
:1033D000785F68616C5F7263632E63000020024057
:1033E00000100240548100088C000020840000205E
:1033F00001480068704700008C00002000B5FFF70E
:10340000F7FF04494968C1F30221034A515CC840EF
:1034100000BD0000001002406481000800B5FFF705
:10342000E7FF04494968C1F3C221034A515CC8401F
:1034300000BD00000010024064810008F0B585B0B6
:103440000FF26C0C9CE8E01001A8A0E8E0101CA5AD
:103450002D68009500210022002300240020194D32
:10346000696801F00C05F5B1042D02D0082D19D1C1
:1034700001E0154819E001ADC1F38346AC5D01F4EC
:10348000803555B10F4D6D68C5F340451DF80520D9
:103490000D4D6543B5FBF2F302E00C4D04FB05F363
:1034A000184602E000BF084800BF00BF05B0F0BDED
:1034B00002030405060708090A0B0C0D0E0F101075
:1034C000010200000010024000127A0000093D00D5
:1034D000F8B504460CB90120F8BD206890B12078F9
:1034E00000F0010070B9207800F00200022809D035
:1034F000207800F00800082804D0207800F00400AC
:10350000042800D104E040F26711FAA004F0C4FDE1
:10351000207800F00100002870D0606838B1606841
:10352000B0F5803F03D06068B0F5A02F00D104E073
:1035300040F26D11EFA004F0AFFDFC48406800F0D0
:103540000C0004280CD0F948406800F00C00082852
:1035500011D1F648406800F48030B0F5803F0AD1C0
:10356000F248006800F40030002860D0606800284D
:103570005DD10120B0E700BF6068B0F5803F06D1A3
:10358000EA48006840F48030E849086028E0606854
:1035900058B9E648006820F48030E44908600846DD
:1035A000006820F4802008601AE06068B0F5A02F61
:1035B0000BD1DE48006840F48020DC4908600846F2
:1035C000006840F4803008600AE0D848006820F4C1
:1035D0008030D64908600846006820F480200860E2
:1035E00000BF606890B1FEF771FA054607E0FEF78C
:1035F0006DFA401B642802D903206DE717E0CB4821
:10360000006800F400300028F1D010E0FEF75EFA08
:10361000054606E0FEF75AFA401B642801D903204C
:103620005AE7C248006800F400300028F2D1207840
:1036300000F0020002286BD1206910B12069012836
:1036400000D104E040F2A111AAA004F025FD6069B8
:103650001F2800D804E04FF4D171A6A004F01CFD8F
:10366000B248406800F00C0050B1B048406800F02B
:103670000C00082818D1AD48406800F4803098B993
:10368000AA48006800F0020020B12069012801D09A
:10369000012021E7A548006820F0F800616940EAB0
:1036A000C100A249086033E02069E8B10120A049C7
:1036B0000860FEF70BFA054606E0FEF707FA401B26
:1036C000022801D9032007E79848006800F00200AB
:1036D0000028F2D09548006820F0F800616940EABF
:1036E000C1009249086013E0002091490860FEF78C
:1036F000EDF9054606E0FEF7E9F9401B022801D97D
:103700000320E9E68948006800F002000028F2D1B1
:10371000207800F00800082838D1A06910B1A0690D
:10372000012800D104E04FF4F17172A004F0B4FC60
:10373000A069B8B101207F490860FEF7C7F90546C6
:1037400006E0FEF7C3F9401B022801D90320C3E6B7
:103750007648406A00F002000028F2D0012001F013
:103760001BFA13E0002073490860FEF7AFF9054625
:1037700006E0FEF7ABF9401B022801D90320ABE6B7
:103780006A48406A00F002000028F2D1207800F078
:103790000400042878D10027E06828B1E0680128F7
:1037A00002D0E068052800D104E040F2112151A0C8
:1037B00004F072FC5D48C06900F0805070B900BF31
:1037C0005A48C06940F080505849C8610846C069ED
:1037D00000F08050009000BF00BF012756480068ED
:1037E00000F48070B0B95448006840F480705249C9
:1037F0000860FEF76BF9054606E0FEF767F9401B27
:10380000642801D9032067E64B48006800F4807003
:103810000028F2D000BFE068012806D14348006AC2
:1038200040F001004149086227E0E06858B93F488C
:10383000006A20F001003D4908620846006A20F055
:103840000400086219E0E06805280BD13748006AD7
:1038500040F00400354908620846006A40F0010063
:1038600008620AE03148006A20F001002F4908622E
:103870000846006A20F00400086200BFE068A0B1BA
:10388000FEF724F9054609E02BE0FEF71FF9401B7F
:1038900041F28831884201D903201DE62348006A9D
:1038A00000F002000028F0D012E0FEF70FF9054604
:1038B00008E0FEF70BF9401B41F28831884201D93C
:1038C000032009E61948006A00F002000028F0D140
:1038D000012F05D11548C06920F080501349C861F7
:1038E00000BFE06928B1E069012802D0E069022840
:1038F00024D129E02E2E2F447269766572732F53DE
:10390000544D3332463178785F48414C5F44726998
:103910007665722F5372632F73746D33326631780C
:10392000785F68616C5F7263632E63000010024011
:1039300000004242800442420070004040F2AF2149
:10394000AFF2500004F0A8FBE069002875D067488A
:10395000406800F00C00082870D0E06902286ED1A1
:10396000206A18B1206AB0F5803F00D105E04FF41D
:103970002E71AFF2800004F08FFB606AB8B3606A0A
:10398000B0F5802F33D0606AB0F5002F2FD0606A79
:10399000B0F5402F2BD0606AB0F5801F27D0606A49
:1039A000B0F5A01F23D0606AB0F5C01F1FD0606AB9
:1039B000B0F5E01F1BD0606AB0F5001F17D0606A39
:1039C000B0F5101F13D0606AB0F5201F0FD0606AE9
:1039D000B0F5301F0BD0606AB0F5401F07D0606AA9
:1039E000B0F5501F03D0606AB0F5601F00D105E04C
:1039F00040F2B921AFF2041004F04EFB00203C4924
:103A00000866FEF763F8054606E0FEF75FF8401B20
:103A1000022801D903205FE53448006800F00070F7
:103A20000028F2D1206AB0F5803F17D1A06818B104
:103A3000A068B0F5003F03D108E055E042E02CE07B
:103A400040F2CF21AFF2541004F026FB2748406823
:103A500020F40030A168084324494860D4E90801F3
:103A600008432249496821F4741108431F494860FA
:103A700001201F490866FEF729F8054606E0FEF713
:103A800025F8401B022801D9032025E517480068C6
:103A900000F000700028F2D026E0002014490866EB
:103AA000FEF714F8054606E0FEF710F8401B022862
:103AB00001D9032010E50D48006800F000700028CF
:103AC000F2D111E0E069012800D105E50748466818
:103AD00006F48031206A814204D106F47011606AD4
:103AE000814201D00120F7E40020F5E400100240FB
:103AF0000000424270B504462546681EB0F1807F42
:103B000001D301200FE0681E4FF0E02148610F2132
:103B10004FF0FF3004F0A4FA00204FF0E02188615C
:103B200007200861002070BD704770472DE9F04103
:103B300004460D463B49206888420BD02068B0F10E
:103B4000804F07D038492068884203D03749206821
:103B5000884200D104E040F2867135A004F09CFA5E
:103B60002868A0B12868102811D0286820280ED015
:103B7000286830280BD02868402808D028685028AA
:103B800005D02868602802D02868702800D104E099
:103B900040F2877126A004F07FFA6868802801D07F
:103BA000686800B904E04FF4F16121A004F074FAF0
:103BB00000BF94F83C00012802D10220BDE8F0814A
:103BC000012084F83C0000BF022084F83D002068FA
:103BD00047682068866827F07007286807432068D0
:103BE00047601049206888420BD02068B0F1804FB0
:103BF00007D00D492068884203D00C4920688842CC
:103C000005D126F08006686806432068866001209A
:103C100084F83D0000BF002084F83C0000BF00BFD6
:103C2000CCE70000002C01400004004000080040E8
:103C30002E2E2F447269766572732F53544D333292
:103C4000463178785F48414C5F4472697665722FDF
:103C50005372632F73746D3332663178785F6861A5
:103C60006C5F74696D5F65782E63000010B5044663
:103C70000CB9012010BD3949206888420BD020685A
:103C8000B0F1804F07D036492068884203D03549CB
:103C90002068884200D104E040F2131132A004F001
:103CA000FBF9A06858B1A068102808D0A0682028A7
:103CB00005D0A068402802D0A068602800D104E0A8
:103CC0004FF48A7128A004F0E7F9206938B120691F
:103CD000B0F5807F03D02069B0F5007F00D104E00B
:103CE00040F2151120A004F0D7F9A06910B1A06925
:103CF000802800D104E04FF48B711BA004F0CCF9B4
:103D000094F83D0028B9002084F83C00204600F0DB
:103D100047F8022084F83D00211D206800F05AFF7A
:103D2000012084F8460000BF84F83E0001213F20B6
:103D30000155402001554120015500BF00BF012021
:103D400084F8420043200155442001554520015587
:103D500000BF012084F83D0000208BE7002C0140CB
:103D600000040040000800402E2E2F447269766542
:103D700072732F53544D3332463178785F48414C3B
:103D80005F4472697665722F5372632F73746D335B
:103D900032663178785F68616C5F74696D2E63009C
:103DA00038B504462068B0F1804F15D100BF0B48EC
:103DB000C06940F001000949C8610846C06900F0C7
:103DC0000100009000BF00BF002211461C20FEF73A
:103DD000D5F81C20FEF79CF838BD0000001002400A
:103DE00070B504462449206888420BD02068B0F1A1
:103DF000804F07D021492068884203D0204920689D
:103E0000884200D104E040F2CF111EA004F044F932
:103E100094F83D00012801D0012070BD022084F8F3
:103E20003D002068C06840F001002168C860124968
:103E3000206888420BD02068B0F1804F07D00F492E
:103E40002068884203D00E49206888420CD120683F
:103E5000806800F00705062D0CD02068006840F04F
:103E600001002168086005E02068006840F001005A
:103E7000216808600020D0E7002C014000040040C9
:103E8000000800402E2E2F447269766572732F53FE
:103E9000544D3332463178785F48414C5F44726903
:103EA0007665722F5372632F73746D333266317877
:103EB000785F68616C5F74696D2E63002DE9F04175
:103EC00005460C4600BF95F83C00012802D10220AF
:103ED000BDE8F081012085F83C0000BF022085F894
:103EE0003D002068B0F5805F1AD02068B0F5005F13
:103EF00016D02068A0B12068102811D02068202892
:103F00000ED0206830280BD02068402808D02068C8
:103F1000502805D02068602802D02068702800D181
:103F200004E041F23241E6A004F0B6F82868866861
:103F300026F0770626F47F46286886602068502899
:103F400071D00CDC20286FD004DC00286DD0102844
:103F50006CD18CE130286AD04028F9D149E1602841
:103F600078D070281DD0B0F5805F03D0B0F5005F29
:103F7000EED170E0E049286888420BD02868B0F1A3
:103F8000804F07D0DD492868884203D0DC49286883
:103F9000884200D104E041F23E41C9A004F07CF81F
:103FA00083E1D549286888420BD02868B0F1804F5A
:103FB00007D0D2492868884203D0D149286888426E
:103FC00000D104E041F24541BDA004F065F8A068CD
:103FD00058B1A068B0F5805F07D0A068B0F5005F69
:103FE00003D0A068B0F5405F00D104E041F2484141
:103FF000B3A004F051F86068B0F5004F09D06068D4
:1040000038B1606828B16068022802D060680A2868
:1040100000D104E041F24941A9A004F03DF8E06874
:104020000F2805D809E06AE022E11FE13CE120E128
:1040300041F24A41A2A004F02FF8D4E902136268C9
:10404000286800F001FE2868866846F07706286830
:1040500086602AE190E0A849286888420BD0286849
:10406000B0F1804F07D0A5492868884203D0A44901
:104070002868884200D104E041F25D4190A004F03C
:104080000BF8A06858B1A068B0F5805F07D0A068B1
:10409000B0F5005F03D0A068B0F5405F00D104E048
:1040A0004FF4A35186A003F0F7FF6068B0F5004F0E
:1040B00009D0606838B1606828B16068022802D011
:1040C00060680A2800D104E041F261417CA003F05D
:1040D000E3FFE0680F2800D804E041F2624178A0D5
:1040E00003F0DAFFD4E902136268286800F0ACFD3F
:1040F0002868806840F4804029688860D5E07E495F
:10410000286888420BD02868B0F1804F07D07B49DF
:104110002868884203D07A492868884200D104E0A0
:1041200041F2714166A003F0B7FF6068B0F5004F3F
:1041300009D0606838B1606828B16068022802D090
:1041400060680A2800D104E041F274415CA003F0E9
:10415000A3FFE0680F2800D804E041F2754158A0A1
:1041600003F09AFFE2686168286800F081FD502141
:10417000286800F074FD98E05F49286888420BD0F9
:104180002868B0F1804F07D05C492868884203D086
:104190005B492868884200D104E041F2814148A08F
:1041A00003F07AFF6068B0F5004F09D0606838B15D
:1041B000606828B16068022802D060680A2800D1CF
:1041C00004E041F284413EA003F066FFE0680F285E
:1041D00000D804E041F2854139A003F05DFFE268B8
:1041E0006168286800F057FD6021286800F037FDFD
:1041F0005BE04149286888420BD02868B0F1804FC5
:1042000007D03E492868884203D03D492868884243
:1042100000D104E041F2914129A003F03DFF606824
:10422000B0F5004F09D0606838B1606828B16068A7
:10423000022802D060680A2800D104E041F29441CB
:104240001FA003F029FFE0680F2800D804E041F226
:1042500095411BA003F020FFE2686168286800F028
:1042600007FD4021286800F0FAFC1EE000BF00BFF7
:1042700000BF2149286888420BD02868B0F1804FE0
:1042800007D01E492868884203D01D492868884203
:1042900000D104E041F2A44109A003F0FDFE216831
:1042A000286800F0DCFC00E000BF00BF012085F8BA
:1042B0003D0000BF002085F83C0000BF00BF07E6BE
:1042C0002E2E2F447269766572732F53544D3332FC
:1042D000463178785F48414C5F4472697665722F49
:1042E0005372632F73746D3332663178785F68610F
:1042F0006C5F74696D2E6300002C01400004004067
:1043000000080040704710B5044620680069C0F3FB
:104310004000D8B12068C068C0F34000B0B16FF071
:10432000020021680861012020772068806900F080
:10433000030018B12046FFF7E5FF05E0204600F036
:10434000ADF8204600F0ABF8002020772068006927
:10435000C0F38000D8B12068C068C0F38000B0B15D
:104360006FF00400216808610220207720688069CE
:1043700000F4407018B12046FFF7C4FF05E0204666
:1043800000F08CF8204600F08AF8002020772068A2
:104390000069C0F3C000D8B12068C068C0F3C00095
:1043A000B0B16FF008002168086104202077206810
:1043B000C06900F0030018B12046FFF7A3FF05E035
:1043C000204600F06BF8204600F069F800202077C6
:1043D00020680069C0F30010D8B12068C068C0F33D
:1043E0000010B0B16FF0100021680861082020773C
:1043F0002068C06900F4407018B12046FFF782FFC2
:1044000005E0204600F04AF8204600F048F8002079
:1044100020772068006900F0010058B12068C0686A
:1044200000F0010030B16FF0010021680861204602
:1044300000F036F820680069C0F3C01058B1206859
:10444000C068C0F3C01030B16FF08000216808610F
:104450002046FFF769FB20680069C0F3801058B15F
:104460002068C068C0F3801030B16FF04000216850
:104470000861204600F06EF820680069C0F3401023
:1044800058B12068C068C0F3401030B16FF0200010
:10449000216808612046FFF748FB10BD7047704750
:1044A00070B506462348864243D123480068401C25
:1044B00021490860052801DB002008601F480078BA
:1044C000401CC0B21D4908700A2804DB0020087097
:1044D00001201B4908701B4803F0C2FA0446002C57
:1044E00004DD601EC1B2174803F0BDFA154803F0A1
:1044F0008EFA0546002D04DD681EC1B2114803F096
:1045000089FA11480078012812D11048007878B94A
:104510000F480068401C0E490860042808DB002092
:1045200008600120094908700021064803F06BFA71
:1045300000BF70BD2C020020100000202D000020C4
:104540001C000020B8020020240000202C000020C5
:10455000280000207047000010B504460CB9012067
:1045600010BDA069002826D03A492068884207D0AB
:1045700039492068884203D038492068884200D1F0
:1045800004E04FF4B67136A003F086FDA06958B17F
:10459000A069B0F5807F07D0A069B0F5007F03D097
:1045A000A069B0F5407F00D117E040F26D112CA05A
:1045B00003F072FD11E027492068884207D02649A0
:1045C0002068884203D025492068884200D104E051
:1045D00040F2711122A003F05FFDA06818B1A0683D
:1045E000B0F5805F00D104E040F273111CA003F02D
:1045F00053FD94F83D0028B9002084F83C00204683
:1046000000F04CF8242084F83D002068C06820F4B5
:1046100000502168C860204600F038FC206800691E
:1046200020F49040216808612068406920F02A0049
:10463000216848612068C06840F400502168C86063
:1046400000202064202084F83D0084F83E000020F3
:1046500086E7000000380140004400400048004068
:104660002E2E2F447269766572732F53544D333258
:10467000463178785F48414C5F4472697665722FA5
:104680005372632F73746D3332663178785F68616B
:104690006C5F756172742E630000000010B586B007
:1046A0000446002002900390049005901A49206867
:1046B00088422ED100BF1948806940F480401749D4
:1046C00088610846806900F48040019000BF00BF07
:1046D00000BF0846806940F0040088610846806990
:1046E00000F00400019000BF00BF481502900220B6
:1046F00003900320059002A90948FCF77FFF4FF4BF
:104700008060029000200390049002A90448FCF706
:1047100075FF06B010BD00000038014000100240D7
:1047200000080140FEE730B50B46002100BF16E04F
:104730000A24B4EB107F05D9302404EB107403F87D
:10474000114005E0412404EB10740A3C03F81140C9
:10475000000100254C00641C1D554C1CE1B2914227
:10476000E6DB30BD10B500220A490B4801F00AF81B
:1047700008B1FBF762FF0949074801F085FA08B163
:10478000FBF75BFF044801F049FB08B1FBF755FF5D
:1047900010BD0000300000206003002094000020C5
:1047A000FEE7FEE72DE9F0470546EAE12868B0F8A4
:1047B00044A00AF00F06002E7ED10AF01000B0BB14
:1047C00000BF2968098848F60F7201EA020040F428
:1047D00000412A68118000BF05F128042868B0F85C
:1047E0005010207801EBC000801C296801F5806121
:1047F00031F81000C0F30900E061E1696069084424
:10480000606100212846FDF78AFC95F82400002805
:10481000CBD0A0690028C8D195F8240040F08000D2
:104820002968A1F84C00002085F82400A9E1FFE7E1
:1048300005F5B4742868B0F8008008F4006030B35F
:104840002868B0F85010207801EBC000801D29685E
:1048500001F5806131F81000C0F30900E061A18B1F
:104860008BB2E28805F52C71286802F093FE00BF38
:104870002968098840F68F7201EA020040F0800141
:104880002A68118000BF2846FEF719FB79E108F479
:104890000040002889D000BF2968098840F68F723F
:1048A00001EA020040F080012A68118000BF2868F8
:1048B000B0F85010207800E06FE001EBC000801DE0
:1048C000296801F5806131F81000C0F30900E0614A
:1048D000E06990B1606980B1B4F81CC01FFA8CF334
:1048E000E2886169286802F055FEE1696069084460
:1048F000606100212846FDF722FC2868008800F44A
:104900000060002892D100BF2A682968B1F85010D1
:104910000A4402F20C41084600BF236953B90388D8
:1049200048F2FF3C03EA0C030380038843F400438E
:1049300003801EE023693E2B0DD800BF2369590870
:10494000237C03F0010303B1491C4FF6FF7303EA14
:10495000812303800DE000BF23695909237C03F004
:104960001F0303B9491E4FF4004343EA8123038028
:1049700000BF00BF00BF00BF296809884BF68F72D7
:1049800001EA020080F4805080F4005040F40041BD
:1049900041F080012A681180F3E07100286830F846
:1049A000118008F4004000287ED000BF7200296802
:1049B00031F8121040F68F7201EA020040F08001D7
:1049C00073002A6822F8131000BF06EB860105F574
:1049D000B47000EBC104207BB0B92868B0F8501067
:1049E000207801EBC000801D296801F5806131F855
:1049F0001000C0F30907002F5BD0E28861693B46D5
:104A0000286802F0C7FD54E0E078022806D142464B
:104A100021462846FDF716FC07464AE000BF00BFC6
:104A200022785200296831F8121048F68F7201EA94
:104A3000020040F4004141F0C00123785B002A6885
:104A400022F8131000BF00BF21784900286830F811
:104A5000110000F48040A8B12868B0F85010207808
:104A600001EBC000801C296801F5806131F810005D
:104A7000C0F30907EFB1228961693B46286802F05B
:104A800089FD16E02868B0F85010207801EBC000CE
:104A9000801D296801F5806131F81000C0F3090715
:104AA0003FB16289616900E017E03B46286802F087
:104AB00071FDE0693844E061606938446061A06973
:104AC00010B12069B84204D921782846FDF737FB98
:104AD00003E02146286801F07CFF08F08000B0B3B5
:104AE00006EB860105F1280000EBC10400BF72004F
:104AF000296831F8121048F60F7201EA020040F4FA
:104B0000004173002A6822F8131000BFE0780328E0
:104B100007D0E07828B1E07802282DD108F4807021
:104B200050BB2868B0F85010207801EBC000801C02
:104B3000296801F5806131F81000C0F30909A06906
:104B4000484505D9A069A0EB0900A06102E018E082
:104B50000020A061A06920B921782846FDF7DFFA7E
:104B60000FE0606948446061E0694844E0612146C3
:104B7000286801F02EFF04E0424621462846FDF752
:104B80000DFC2868B0F8440000F4004000287FF4D1
:104B90000DAEBDE8F087704708B508490968C90837
:104BA0004FF47A72B1FBF2F14143009100BF00BFB4
:104BB00000994A1E00920029F9D108BD8C000020FE
:104BC0007047FDF735B970470148FFF79CBB0000FF
:104BD0002C02002010B50268184B984208D0B0F1A2
:104BE000804F05D0164B984202D0164B984203D105
:104BF00022F070024B681A43104B984208D0B0F173
:104C0000804F05D00E4B984202D00E4B984203D1F4
:104C100022F44072CB681A4322F080034C6943EAC5
:104C2000040202608B68C3620B688362034B984284
:104C300001D10B6903630123436110BD002C0140C6
:104C4000000400400008004030B50C46816821F4A3
:104C50007F4142EA032525432943816030BD0A464E
:104C6000816821F0700142F00703194381607047A9
:104C700030B50B461446026A056A25F00105056247
:104C8000816921F0F00141EA041122F00A021A437D
:104C90008161026230BD30B50B461446056A25F0CD
:104CA000100505628169026A21F4704141EA04310C
:104CB00022F0A00242EA03128161026230BD10B507
:104CC000012000F005F8BDE810400320FCF752BCBD
:104CD00010B50446002204210548FCF7BBFE20095C
:104CE00000F008F804F00F00BDE8104000F002B832
:104CF0000008014070B50446234D200705D5012268
:104D000080212846FCF7A6FE04E0002280212846E8
:104D1000FCF7A0FE600705D5012240212846FCF7DC
:104D200099FE04E0002240212846FCF793FEA007EC
:104D300005D5012220212846FCF78CFE04E0002244
:104D400020212846FCF786FEE00705D0012210212D
:104D50002846FCF77FFE04E0002210212846FCF7DD
:104D600079FE012208212846FCF774FE142003F086
:104D700094F9002208212846FCF76CFEBDE870403B
:104D8000142003F08AB900000008014004490878A3
:104D900040F00400087040F00800FFF799BF0000E1
:104DA0000000002070B506460D4600F03DF82D20AD
:104DB000FCF7E0FB1B4CE570267100206071A071D0
:104DC0006070012D01D9082060700320FFF792FF69
:104DD0000520FCF7CFFB0320FFF78CFF0520FCF735
:104DE000C9FB0320FFF786FF0520FCF7C3FB022069
:104DF000FFF780FF0120FCF7BDFB607840F020004A
:104E0000FFF766FF04202070FFF7C0FFFFF757FF92
:104E10000220A0700620FFF75BFFBDE87040052070
:104E2000FCF7A8BB000000201FB500200290FC206A
:104E30000090012001900220039069461148FCF780
:104E4000DDFB114C002204212046FCF703FE00226A
:104E500008212046FCF7FEFD002210212046FCF729
:104E6000F9FD002220212046FCF7F4FD002240211C
:104E70002046FCF7EFFD002280212046FCF7EAFDEA
:104E80001FBD0000001801400008014070B5044635
:104E900057496068884200D804E040F6536155A045
:104EA00003F0FAF8E06818B1E068B0F5005F00D1EF
:104EB00004E040F654614FA003F0EEF8206938B1E9
:104EC0002069B0F5806F03D02069B0F5C06F00D1C4
:104ED00004E040F6556147A003F0DEF84FF6F371A9
:104EE0006069084010B9606900B104E040F656619D
:104EF00040A003F0D1F82068006920F44050E16838
:104F00000843216808612169A0680843616940EA93
:104F100001062068C06841F20C6188433043216873
:104F2000C8602068406920F44070A1690843216886
:104F300048613F492068884203D1FEF76FFA054671
:104F400002E0FEF75BFA054605EBC50000EB051035
:104F500061688900B0FBF1F005EBC50101EB0511BB
:104F600062689200B1FBF2F16422B1FBF2F101EB55
:104F7000C10202EB0111A0EB8100322101EB001014
:104F80006421B0FBF1F000F0F00005EBC50101EB8E
:104F9000051162689200B1FBF2F16422B1FBF2F1FB
:104FA00000EB011105EBC50000EB051062689200F3
:104FB000B0FBF2F005EBC50202EB051263689B0043
:104FC000B2FBF3F26423B2FBF3F202EBC20303EB96
:104FD0000212A0EB8200322202EB00106422B0FB2E
:104FE000F2F000F00F0008442168886070BD0000F6
:104FF00020AA44002E2E2F447269766572732F53B7
:10500000544D3332463178785F48414C5F44726981
:105010007665722F5372632F73746D3332663178F5
:10502000785F68616C5F756172742E6300000000C8
:105030000038014070B504460D46D4F8B402294644
:10504000426820469047002070BD70B504460D466A
:1050500094F89C02012804D0022803D003280CD124
:1050600001E000BF00BF6888012805D10020C4F816
:10507000A402204600F04AF804E02946204600F049
:105080001BF800BF00BF70BD70B506460C46154644
:105090002B4622460021304600F0EEFC002070BD79
:1050A00070B506460C4615462B4622460021304672
:1050B00000F0BEFD002070BD70B504460D46802195
:1050C000204600F089FD0021204600F085FD70BDDE
:1050D00010B504460520C4F8940200231A46194668
:1050E000204600F0C9FC002010BD70B504460E46F5
:1050F00015460220C4F89402E56125622B4632462B
:105100000021204600F094FD002070BD10B504463B
:105110000420C4F8940200231A461946204600F0E1
:1051200087FD002010BD000070B505460C462DB966
:105130002246064906A000F0DBF904E022460349B6
:1051400003A000F0D5F9014870BD0000240600203E
:1051500048494420436F6E6669670000024612208A
:1051600008800148704700004C00002070B50546DB
:105170000C462DB92246064906A000F0B9F904E014
:105180002246034903A000F0B3F9014870BD0000B6
:105190002406002048494420496E746572666163A4
:1051A00065000000024604200880014870470000A6
:1051B0006000002070B505460C462246024903A057
:1051C00000F096F9004870BD2406002053544D6944
:1051D00063726F656C656374726F6E6963730000F0
:1051E00070B505460C462DB92246064906A000F0CA
:1051F0007FF904E02246034903A000F079F9014851
:1052000070BD00002406002053544D3332204875F1
:105210006D616E20696E7465726661636500000081
:1052200070B505460C461A202080FBF709FA0148A4
:1052300070BD00006400002070B504460D46E8888B
:10524000012804D029462046FFF736FF1EE094F8D7
:105250009C02012804D0022803D0032810D109E0C1
:1052600000BF0020A060012204F108012046FFF7E2
:105270003CFF0AE00122211D2046FFF736FF04E033
:1052800029462046FFF718FF00BF00BF70BDF8B5E4
:1052900004460E460020009000270025708800126A
:1052A000082875D2DFE800F0C7040C20C7C7A5B5F1
:1052B000207CD4F8B0120A68694690470746C1E0DE
:1052C000207C40B9D4F8B402816A68468847074612
:1052D0000220787007E0D4F8B402C16A68468847B3
:1052E000074602207870ADE0B078062878D2DFE873
:1052F00000F00316293C5063D4F8B002406838B17E
:10530000207CD4F8B0124A6869469047074605E009
:1053100031462046FFF7D0FE681CC5B267E0D4F8DE
:10532000B002806838B1207CD4F8B0128A6869462F
:105330009047074605E031462046FFF7BDFE681C52
:10534000C5B254E0D4F8B002C06838B1207CD4F8BB
:10535000B012CA6869469047074605E031462046C4
:10536000FFF7AAFE681CC5B241E0D4F8B00200699C
:1053700038B1207CD4F8B0120A69694690470746D4
:1053800005E031462046FFF797FE681CC5B22EE0C7
:1053900051E0D4F8B002406938B1207CD4F8B012A2
:1053A0004A6969469047074605E031462046FFF7BF
:1053B00083FE681CC5B21AE0D4F8B002806940B11F
:1053C000207CD4F8B0128A6969469047074606E007
:1053D00006E031462046FFF76FFE681CC5B206E0C6
:1053E00031462046FFF768FE681CC5B200BF00BF0B
:1053F00028E0207C30B9D4F8B402416B6846884775
:10540000074605E031462046FFF756FE681CC5B248
:1054100018E0207C40B9D4F8B402016B6846884794
:1054200007460720787005E031462046FFF744FE26
:10543000681CC5B206E031462046FFF73DFE681CF9
:10544000C5B200BF00BF05B1F8BDBDF8000088B10E
:10545000F08878B1F088BDF80010884202DDBDF810
:10546000000000E0F0880090BDF80020394620469A
:10547000FFF73BFEF08810B92046FFF747FE00BF5C
:10548000E2E70146002002E0421CD0B2491C0A7843
:10549000002AF9D1704770B504460D4694F89C0275
:1054A000012804D0022803D003281AD101E000BF4C
:1054B00000BFE888022804D029462046FFF7FCFDFB
:1054C00014E00120E060D4F8A40218B1E06840F0D4
:1054D0000200E060022204F10C012046FFF705FE05
:1054E00004E029462046FFF7E7FD00BF00BF70BD7E
:1054F0002DE9F04104460D4617460026FCB1204632
:10550000FFF7BFFF022101EB400038803A783046B8
:10551000711CCEB22A5403223046711CCEB22A54DA
:105520000AE014F8012B3046711CCEB22A54002236
:105530003046711CCEB22A5420780028F1D1BDE843
:10554000F0810146002031B1012906D0022906D0A0
:10555000032908D105E0002007E0022005E0012032
:1055600003E0022001E0022000BF00BF70470246B6
:105570000020D2F8B8321873704770B504460D4653
:105580008121204600F02AF90021E162D4F8B80216
:1055900030B1D4F8B80200F0F4FD0020C4F8B8022D
:1055A000002070BD01460A200880014870470000B5
:1055B0004401002001462220088001487047000075
:1055C000CC000020014622200880014870470000DE
:1055D000F0000020014622200880014870470000AA
:1055E0001401002070B504460D46042303228121D6
:1055F000204600F029FA0121E162102000F0C2FDEE
:10560000C4F8B802D4F8B80208B9022070BD00206E
:10561000D4F8B812087300BFF8E700002DE9F8438A
:1056200006460C46D6F8B8520027B846002000902F
:105630008146207800F0600030B3202874D1607873
:10564000022812D0032806D00A280AD00B2812D12B
:10565000A078286016E0012229463046FFF745FD74
:1056600010E06088001268600CE00122291D3046BD
:10567000FFF73BFD06E021463046FFF71DFD4FF0EA
:10568000020900BF00BF75E0607830B1062815D070
:105690000A283ED00B285DD14EE096F89C020328E4
:1056A00005D1022269463046FFF71FFD05E021467D
:1056B0003046FFF701FD4FF0020952E060882221D9
:1056C000B1EB202F09D1E0884A2801D94A2000E017
:1056D000E0880746DFF8A48015E060882121B1EB5F
:1056E000202F09D1DFF89880E088092801D9092006
:1056F00000E0E088074606E021463046FFF7DCFC84
:105700004FF002092DE03A4641463046FFF7EDFCE6
:1057100027E096F89C02032807D1012205F1080131
:105720003046FFF7E2FC06E01DE021463046FFF779
:10573000C3FC4FF0020914E096F89C02032802D142
:10574000A078A86005E021463046FFF7B5FC4FF091
:10575000020906E021463046FFF7AEFC4FF0020991
:1057600000BF00BF06E021463046FFF7A5FC4FF022
:10577000020900BF00BF4846BDE8F8835001002081
:105780003801002070B504460D4616460CB90220BB
:1057900070BDD4F8B40210B10020C4F8B4020DB149
:1057A000C4F8B052012084F89C022670204600F014
:1057B000FBF80020ECE72DE9F04104460D460026F9
:1057C00000272946D4F8C002FCF7FEFC0646304606
:1057D000FFF7B7FE07463846BDE8F0812DE9F041F6
:1057E00004460D46002600272946D4F8C002FCF7DF
:1057F000B6FC06463046FFF7A4FE07463846BDE82D
:10580000F0812DE9F04104460E461746002E64D182
:1058100004F11405D4F89402022848D1D5E9030113
:10582000884210D9D5E90301401AE860A88982B2FC
:1058300039462046FFF734FC00231A461946204615
:1058400000F01AF93EE02969A868B0FBF1F201FB0B
:105850001200B8B92969A868884213D3A868D4F897
:10586000981288420ED2002211462046FFF718FCFB
:105870000020C4F8980200231A461946204600F07A
:10588000FBF81FE0D4F8B402C06840B194F89C0261
:10589000032804D1D4F8B402C16820468847802187
:1058A000204600F099F92046FFF712FC0AE0D4F8F0
:1058B0009402042802D0D4F8940218B9802120461A
:1058C00000F08AF994F8A002012818D1204600F0CF
:1058D000E3F9002084F8A00211E0D4F8B402406992
:1058E00050B194F89C02032806D1D4F8B402314692
:1058F00042692046904702E00220BDE8F081002086
:10590000FBE72DE9F04104460E461746BEBB04F501
:10591000AA75D4F89402032825D1D5E90301884259
:1059200010D9D5E90301401AE860D5E9030188429E
:1059300001D2E86800E0286982B239462046FFF7C4
:10594000A3FB2FE0D4F8B402006940B194F89C02A4
:10595000032804D1D4F8B4020169204688472046C0
:10596000FFF7D4FB1EE0D4F8940205281AD10020DA
:10597000C4F894020021204600F02EF912E0FFE75F
:10598000D4F8B402806950B194F89C02032806D17F
:10599000D4F8B402314682692046904702E00220E2
:1059A000BDE8F0810020FBE710B504461648C0F8BA
:1059B000E842C4F8C002154813490860082048604E
:1059C00002211148816000218161C1610162FDF7FE
:1059D00045F908B1FAF731FE182300221146D4F830
:1059E000C002FCF779FB582300228021D4F8C002C2
:1059F000FCF772FB4FF4807300228121D4F8C002BF
:105A0000FCF76AFB002010BD24080020005C004069
:105A100010B50246D2F8C03201F08000802809D1CA
:105A200001F07F0000EB800403F1280000EBC400CC
:105A3000807810BD01F07F0000EB800403F5B470A6
:105A400000EBC4008078F4E72DE9F04704460F46E8
:105A500015461E464FF00008C1462B4632463946D1
:105A6000D4F8C002FCF72EFF80464046FFF769FDE0
:105A700081464846BDE8F0872DE9F04704460D46CB
:105A800016461F464FF00008C1463B46324629469F
:105A9000D4F8C002FCF75CFF80464046FFF751FD9A
:105AA00081464846BDE8F08710B5044640230022F1
:105AB00011462046FFF7C8FF01214FF4AC70015199
:105AC00040214FF4B2700151402300228021204632
:105AD000FFF7BAFF0121A16140216162012084F832
